S00C000052544F532E73726563D0
S21440000080F90020190740001507400015074000FA
S2144000101507400015074000150740000000000087
S214400020000000000000000000000000B12A400070
S2144000301507400000000000512B4000B52B400043
S21440004015074000150740001507400015074000FB
S21440005015074000150740001507400015074000EB
S2144000601507400075054000890540009D05400085
S214400070B1054000C5054000150740001507400083
S21440008015074000150740001507400015074000BB
S21440009015074000150740001507400015074000AB
S2144000A0150740001507400015074000150740009B
S2144000B01507400015074000ED2240000123400090
S2144000C0150740001507400015074000150740007B
S2144000D0150740003D114000150740001507400039
S2144000E0150740001507400015074000150740005B
S2144000F0150740001507400010B5054C237833B966
S214400100044B13B10448AFF300800123237010BDA5
S214400110D009002000000000C48940000C4B43B1C9
S2144001200C480D4910B5AFF300800C48036823B95E
S21440013010BD0A48036833B97047094B002BF7D007
S214400140BDE810401847064B002BF5D0184700BFB7
S21440015000000000C4894000D4090020C489400043
S214400160000000000022034B1A604FF07F42024B13
S2144001705A63704788C3002000140E4010B51248DA
S214400180124B9847124B984700214FF08040114C35
S214400190A04701214FF08040A04702214FF0804009
S2144001A0A04703214FF08040A0470B480B4B984791
S2144001B0BFF34F8F0A49CA6802F4E062094B134303
S2144001C0CB60BFF34F8FFEE7C4844000ED54400041
S2144001D06501400037284000D373570201000020D5
S2144001E000ED00E00400FA0511B9034B5863704770
S2144001F0014B1863704700BF00140E4010B50E4800
S2144002000E4B98473E2100200D4B98470D4CA0477B
S2144002100028FCD00C4B98470C4A0D4B9A620D4C6C
S214400220A0470028FCD000200B4B98470B4B984724
S2144002300B48024B984710BD000E2707ED084000BC
S2144002403D06400091064000A1064000043F1520B0
S21440025000040E40B1064000D9054000E1074000CA
S21440026080778E0610B54FF400426D4B5A600920D9
S2144002706C4CA0470A20A0470B20A0470C20A04764
S2144002800D20A047684B4FF4C0621A66C3F8902012
S2144002905A655A62C3F88020196F21F4C061196705
S2144002A0596F21F4C06159675A60604A0821116647
S2144002B0C2F8901051655162C2F88010106F20F05D
S2144002C008001067506F20F0080050675160042106
S2144002D01166C2F8901051655162C2F88010106FD6
S2144002E020F004001067506F20F004005067516003
S2144002F04FF480521A66C3F890205A655A62C3F883
S2144003008020196F21F480511967596F21F480516C
S21440031059675A604FF400521A66C3F890205A65DF
S2144003205A62C3F88020196F21F400511967596F3B
S21440033021F4005159675A604FF480421A66C3F858
S21440034090205A655A62C3F88020196F21F4804184
S2144003501967596F21F4804159675A604FF400621B
S2144003601A66C3F890205A655A62C3F88020196FFF
S21440037021F400611967596F21F4006159675A608A
S21440038003F5C0634FF480121A66C3F890205A658E
S2144003905A62C3F88020196F21F480111967596F8B
S2144003A021F4801159675A604FF400121A66C3F858
S2144003B090205A655A62C3F88020196F21F40011C4
S2144003C01967596F21F4001159675A604FF480023B
S2144003D01A66C3F890205A655A62C3F88020196F8F
S2144003E021F480011967596F21F4800159675A60DA
S2144003F04FF400021A66C3F890205A655A62C3F852
S2144004008020196F21F400011967596F21F400010B
S21440041059675A602420A0472520A04710BD00BF3A
S21440042050180E40C1064000000E0E4000100E4010
S214400430416412F0010F14BF4166016612F00A0FC4
S21440044014BF0162416212F0020F07D112F0080F8A
S21440045018BFC0F88410416101607047C0F8801032
S214400460F9E712F0100F10D0C0F8B01012F0200FBD
S21440047014BFC0F8D410C0F8D01012F0400F14BF0C
S214400480C0F8C010C0F8C4107047C0F8B410704729
S21440049001647047C06C7047806C70472DE9F84324
S2144004A081460F46124B984705464846114B98479B
S2144004B0054013D0104C04F1600603E0B4420DD062
S2144004C010345DB12068B842F8D161682942F5D051
S2144004D0E3689847636825EA0305EFE7074B1B6820
S2144004E023B1074B1B680BB148469847BDE8F883D5
S2144004F09504400099044000EC09002018C50020EF
S214400500600A0020F8B5184C2668062E29D84FF009
S214400510000C6446154F04E00134E4B2A446A642FB
S21440052009D3A64625017D598D42F5D107EB041522
S2144005306D689542F0D10D4D4FEA0E1E05EB0E0448
S21440054045F80E106260A3600699E1600136664584
S21440055004BF05490E6011461A46054B98470020D1
S214400560F8BD0120F8BD00BF5C0A0020EC09002061
S2144005706304400008B509210148024B984708BD6E
S214400580000E0E409D04400008B50A210148024B6B
S214400590984708BD00100E409D04400008B50B214A
S2144005A00148024B984708BD00120E409D0440008B
S2144005B008B50C210148024B984708BD00140E4070
S2144005C09D04400008B50D210148024B984708BDE0
S2144005D000160E409D044000174A136B23F070032C
S2144005E018431063936E13F0080F0AD14FF400635C
S2144005F011498A6E12F0080F03D1013BF9D1012050
S21440060070470D4A136B23F0030343F00203136352
S214400610936E13F0080F0AD14FF4006306498A6EB2
S21440062012F0080F05D1013BF9D101207047002098
S21440063070470020704700BF00040E40C8B9114AFA
S214400640136A090289B223F45C1323F0030343F4CC
S2144006505C1343F001030B431362936E13F0010FD8
S214400660FBD0084A136A43F09B7343F4803313620B
S214400670704704490B6A044A1A40044B13430B6202
S214400680704700BF00040E40FCFFC8FE0200370162
S214400690024B986E00F48030704700BF00040E4056
S2144006A04FF00052014B9A62704700BF00040E4064
S2144006B0024B986E00F00200704700BF00040E40E8
S2144006C02F281ED81F280CD8114B9A690123834027
S2144006D0934318D0012303FA00F00D4B1861002015
S2144006E0704720380A4BD3F80821012383409343B0
S2144006F00BD0012303FA00F0054BC3F8000100209D
S214400700704701207047002070470020704700BFA8
S21440071000040E40FEE7000000B583B0254B264A95
S2144007209A4210D0254B234A9A420CD2013B9B1A40
S21440073023F00303043313441F4951F8040B42F8D3
S214400740040B9A42F9D11E4B1E4A9A420AD2013BEA
S2144007509B1A23F0030304331344002142F8041B7E
S2144007609342FBD1184A194B23F07F039360EFF373
S2144007701083B3FA83F35B09019372B6BFF35F8FBE
S2144007800022134B1A700199124A136843F47003FF
S2144007901360BFF34F8FBFF36F8F29B101220C4B0D
S2144007A01A70BFF35F8F62B60B4B98470B4B984758
S2144007B0FEE700BF00000020C4894000D0090020AA
S2144007C07CC90020D009002000ED00E00000400079
S2144007D00A00002088ED00E09D544000454140005E
S2144007E03B4B1B6B03F00303012B1DD083B1022B45
S2144007F036D0374B1B6B03F07003702B5FD0344BF7
S2144008001A6B3449C2F302120B68D3400B60704730
S214400810314B5B6913F0800F14BF4FF400424FF426
S214400820FA422C4B1A60E4E7294B1B6A13F0807F90
S21440083003D02A4A274B1A60DBE7294A254B1A6021
S214400840234B1B6A03F07003102B05D0202BD0D10E
S214400850224A204B1A60CCE7224A1E4B1A60C8E751
S2144008601B4B1B6A13F0807F16D01C4A194B1A602C
S214400870174B1B6B03F00303022BBAD1144A916A41
S214400880926A1448C1F30A41036801FB0333D2B2AB
S214400890B3FBF2F30360ACE7114A0E4B1A600C4B05
S2144008A01B6A03F07003102B05D0202BE0D10B4AB7
S2144008B0084B1A60DCE70B4A064B1A60D8E7054A35
S2144008C013680949A1FB03135B081360704700BF18
S2144008D000040E400C00002010180E40001BB7000D
S2144008E000093D0000127A00ABAAAAAA124B984211
S2144008F011D9124B984213D9114B984214D9114B27
S214400900984215D9104B984294BF4FF004220F4A94
S2144009100F4B1A6070474FF080620D4B1A6070475D
S2144009200C4A0B4B1A6070470B4A094B1A607047CB
S2144009300A4A074B1A607047FF2C3101FF59620282
S214400940FF869303FFB3C404FFE0F50500050004EB
S214400950000A0E40000100040002000400030004E8
S2144009600A4B1B6853B1094B1B681A180849914239
S21440097008DB1046054A106018467047054A034B88
S2144009801A60F0E74FF0FF30704700BF640A00205F
S214400990FCFF012080F900204FF0FF3070474FF4F5
S2144009A000534B600020704701207047002070477E
S2144009B02DE9F04182B01E4B4FF07F421A601A611B
S2144009C0C3F8A020A3F5C0634FF000721A61C3F8C5
S2144009D0A0201A634FF080621A61C3F8A0201A6301
S2144009E04FF000621A61C3F8A0201A63114C04F15C
S2144009F028080F4F0126104D324654F8041B38463F
S214400A00A8474445F8D10A4C0C4B009310230122CA
S214400A100C2120460A4DA84701212046094B9847FD
S214400A204FF48052084B1A6002B0BDE8F08100BF18
S214400A3000140E4024854000310440007D014000F3
S214400A40050540009104400000E100E02DE9F04F2C
S214400A5083B0444C2046444B9847444D2846444B2C
S214400A6098474FF4A0232B6029462046414B984791
S214400A70636823F08F0363603F48404B9847404D80
S214400A80DFF81C9105F1080ADFF8EC803D4F35F899
S214400A9002BB424659462046B84739F8026B4246A2
S214400AA031462046B847C4F864B04FF40063E36666
S214400AB06666E3665545EAD12F4F2A4C3A460C21E6
S214400AC02046304EB0470C2363664FF40065E5661B
S214400AD03A460D212046B0470D236366E56604F589
S214400AE080442046204B9847274D2846204B984721
S214400AF04FF4A0232B60294620461E4B9847636838
S214400B0023F08F03636021481C4B9847204C04F128
S214400B100809DFF878801F4D374634F8026B4246A6
S214400B2031462846B8476E664FF40063EB664C4540
S214400B30F3D10C4C104A0F212046124B98470F23F6
S214400B4063664FF40063E3666846134B984700239A
S214400B508DF8003069462046104B984703B0BDE8F4
S214400B60F08F00BF00000B4015234000DCC3002080
S214400B70C921400019224000D8C30020F921400076
S214400B80CC84400085214000F8C3002014C50020D6
S214400B90DC84400000400B4003224000B52140006A
S214400BA0D48440002DE9F843364C4FF47A72364BE5
S214400BB019682046354B98472046354B984725467A
S214400BC0344C2846A04710F0F85FFAD12D48324BF7
S214400BD09847324C04F58071234600221A601A71F9
S214400BE05A719A71DA719A60DA601A615A619A613A
S214400BF0DA6120338B42F1D1284D00232B60022648
S214400C002E716FF06049C5F80C904FF08D632B61E4
S214400C10DFF8708029464046214FB84701232B62B3
S214400C2085F82460C5F82C904FF090632B6305F14F
S214400C3020014046B8472E6485F844604FF0406334
S214400C40EB644FF000632B6505F140014046B84722
S214400C504FF0A0560325DFF84C902566032384F812
S214400C6064300023E36606EA0903236704F1600163
S214400C704046B8470135203406F58026082DECD18D
S214400C80BDE8F8830000014098C3002021254000BD
S214400C9083234000952340007923400014C400205D
S214400CA0BB2340000000FC1F2DE9F04784B0194BE1
S214400CB0019300230293184B1B68039301A94FF03E
S214400CC08040164B9847164F164C07F1100A0025E1
S214400CD04FF08048DFF8589057F8046B2A46314664
S214400CE04046C8472581A5720B2363606423236171
S214400CF04B23E3602660214640460B4B98472A46E6
S214400D0031464046094B984738345745E4D104B0FD
S214400D10BDE8F08720A1070098C300207126400058
S214400D200C86400070C70020B52640004128400091
S214400D305328400038B5224B9847224B9847224BC1
S214400D409847224B98470120214CA047214B1860DA
S214400D500120A047204B18600322002101201F4B92
S214400D6098471F4B18604FF4E2621E4B1A601E4DA8
S214400D70291F1E4C1C35012051F8042F530903F53A
S214400D80001303F207735B0202F01F0200FA02F23E
S214400D901A61C3F8A0201A6354F8042F530903F5C8
S214400DA0001303F207735B0202F01F0200FA02F21E
S214400DB01A61C3F8A0205A63A942DDD138BD00BFEE
S214400DC0B1094000A90C4000A50B40004D0A400068
S214400DD03D32400050C80020E8C500201D3040008D
S214400DE0ECC5002088C30020E48440000085400015
S214400DF0F0B583B000243C4F3C4E3D4D02E00134FC
S214400E00042C10D0002301930123009323464FF473
S214400E10807239463046A8470128F0D021463548EA
S214400E20354B9847EBE7354F354E314D02E00134B0
S214400E300C2C10D0002301930123009323464FF43B
S214400E40807239463046A8470128F0D021462D48C2
S214400E50294B9847EBE7002301930122009240225A
S214400E6029492A48224CA047012802D02848224B2C
S214400E7098470023019302220092402225492648A3
S214400E801B4CA047012802D021481B4B9847002303
S214400E90019302220092402220492148144CA04748
S214400EA0012802D01A48144B984700230193022287
S214400EB0009240221B491C480D4CA047012802D0F6
S214400EC013480D4B984700230193032200924FF49A
S214400ED0807216491648064CA047012802D00C4896
S214400EE0054B984703B0F0BD4C8540004D1640007A
S214400EF07D35400058854000ED54400078854000E0
S214400F007519400084854000A48540002D1040009F
S214400F10B0854000CC854000511C4000DC85400038
S214400F20B91D4000EC854000951E4000FC85400001
S214400F30A11F4000044B1B6820EA0300034B1860C7
S214400F400022034B1A6070478CC3002088C30020E1
S214400F5090C3002082B0C0B24FF4167303FB00F07B
S214400F60014B186002B070479CC3002082B0034B10
S214400F709871C0F30060D87102B070479CC30020DF
S214400F8030B482B002AC64E9020100230C490D4D36
S214400F9007E0CA5CC2F16402D2B2CA540133042BE1
S214400FA00BD014F8012BCA54CA5C2878D2B28242BD
S214400FB0EFD92A78D2B2CA54EBE702B030BC7047B9
S214400FC018000020140000207047000084B070B560
S214400FD004AC84E80F000A980B99114C099B04EA6C
S214400FE08342089B1A432240B2F18D6F11D00123F1
S214400FF01C460C4E56F83450AA420BD00133DBB296
S2144010001C46032BF6DD084B9847BDE8704004B0FD
S21440101070470024034B03EBC4046368F4E700BF47
S2144010200000FC1F1C864000C90F40002DE9F04719
S21440103086B0354B98470590344D354C354EDFF8E5
S214401040EC90354F07F1100813E001212846B047D1
S2144010502060236813F4000F34D102212846B0479D
S2144010602060236813F4000F3DD1642105A82B4B64
S21440107098472B4A1368643313602846294B984791
S214401080206000212846B0472060236813F4000FF4
S214401090DBD0D9F83C3013F0006F4FF0006314BF3C
S2144010A0C9F83430C9F83030394628461E4B984780
S2144010B098E80F008DE80F0097E80F00DFF870A063
S2144010C0D047C2E7DFF86CA051462846164B9847F3
S2144010D00AF110030FCB8DE80F009AE80F00DFF8F7
S2144010E050A0D047B9E7DFF850A0514628460E4BEF
S2144010F098470AF110030FCB8DE80F009AE80F00CF
S214401100DFF82CA0D047B0E705384000000001408B
S214401110680A00209923400014C40020593A400031
S21440112090C30020952340003D244000000E0E4012
S214401130CD0F400034C4002054C4002070B5214870
S214401140214B984710F0816F00D170BD1F4C002690
S2144011502660206801211E4DA84720683146C043BE
S214401160A84701221B4B5A71164C4FF47A721A4B01
S21440117019682046194B98474FF0FF312046184BC8
S2144011809847EFF311864FF0500383F31188BFF36F
S2144011906F8FBFF34F8F2046124B984725460A4C19
S2144011A02846A04710F0F85FFAD1064C20460E4B72
S2144011B0984786F311884FF4002120460B4B9847FA
S2144011C0C3E700BF000001409523400088C30020CD
S2144011D0E901400080C3002098C30020212540003C
S2144011E09123400083234000792340008D23400014
S2144011F082B010B401AC84E80C00BDF81020437AED
S214401200DBB9012303FA01F12E4B1B682E4C2468F0
S214401210194206D0214204D102205DF8044B02B0A8
S21440122070478079824201D20520F6E7BDF8123039
S214401230834234BF04200020EFE7012B08D0022B66
S21440124021D0042B2ED0032B14BF00200120E4E72E
S2144012501C4B1C6801238B40234205D083799CB2EB
S214401260A24205D20520D8E7002303600120D4E738
S214401270164A02EBC1010A799A421ED2036801332C
S21440128003600020C9E7012303FA01F10D4B1B68F8
S214401290194214D00E4B1B681940002914BF022077
S2144012A00020BAE70A4B1A68012303FA01F11140FD
S2144012B0002914BF06200020AFE70020ADE701203C
S2144012C0ABE700BF88C300208CC3002054C8002072
S2144012D094C3002082B08DE80C0001228A40036B44
S2144012E01A42FCD0416690ED1A7AB8EE477ADFEDA6
S2144012F01A7A27EE277ADDED027AF8EE677A37EE2D
S214401300677ADDED017AF8EE676AC7EE267A9DEDDC
S214401310007A27EE877A9DF8103007EE903AF8EE7E
S214401320E77A67EE877AF5EEC07AF1EE10FA10D4D7
S2144013309FED0A7AF4EE477AF1EE10FAC8BFF0EE67
S214401340477AFCEEE77A17EE903A059A137002B0A9
S2144013507047DFED037AF4E7E54C4E3D00008043EE
S214401360000000000000000030B585B014460122A1
S2144013708A40036B1A42FCD04166D0ED1A7AF8EEEA
S214401380677ACDED037A002302939DED037ADFED75
S214401390206AC6EE877AB7EE007A77EEC77A9FED78
S2144013A01D7A67EE877ACDED037ADDED037AC7EED8
S2144013B0876A16EE900A184B9847DFED187A07EEC4
S2144013C0100A67EE277A9FED167A77EE877ADFED7A
S2144013D0156A86EEA77A8DED027ADDED027AFCEE8E
S2144013E0E77ACDED017A9DF804000F4B984706A3A7
S2144013F0D3E900230D4DA8470D4B9847207005B004
S21440140030BD00BFAFF30080666666666612714008
S21440141000F07F4700401C462142400000009543B4
S21440142000608645C06B9C49ED48400051464000F0
S214401430DD4D40001E4B4FF400425A6102221A60B6
S2144014401A46136B13F4004FFBD0194B0F225A6603
S214401450D3ED1A7AF8EE677A9FED167A67EE877ABA
S214401460DFED156A87EEA67ADFED147A37EE677AF7
S214401470DFED137A27EE277ADFED126AC7EE267A7B
S214401480B3EE0B7A77EE877A9FED0F7AF4EE477AD3
S214401490F1EE10FAC8BFF0EE477AFCEEE77A17EEA8
S2144014A0903A03704FF40042014B9A61704700BF78
S2144014B000000B4000404E4500F07F470000B4441B
S2144014C00000C8420000EB4300007F4384B0464B18
S2144014D04FF480525A614FF400525A6102221A6009
S2144014E01A46136B13F4005FFBD03F4B0D225A662F
S2144014F0D3ED1A7AF8EE677ACDED027A0C225A6668
S214401500D3ED1A7AF8EE677ACDED037A9DED027A3E
S2144015109FED366A27EE067ADFED356AC7EE267A05
S214401520CDED027ADDED037A67EE867A87EEA67A0F
S2144015308DED037ADDED027A9FED2E7A67EE877A9F
S2144015409FED2D7AC7EE876ACDED026ADDED037A10
S214401550DFED2A6A67EEA67AC7EE876ACDED036AA4
S2144015604FF480529A614FF400529A61DDED037A4F
S2144015709FED237A67EE877AFCEEE77ACDED017A27
S214401580BDF804304FF6FF72934227D0DDED037A64
S21440159067EE877AFCEEE77ACDED017ABDF8043047
S2144015A00380DDED027A9FED167A67EE877AFCEED1
S2144015B0E77ACDED017ABDF804304FF6FF729342DC
S2144015C00FD0DDED027A67EE877AFCEEE77ACDED56
S2144015D0017ABDF804300B8004B070474FF6FF73B5
S2144015E0DEE74FF6FF73F6E700000B40E54C4E3D56
S2144015F000007A4400E0124600E0924500B8A1465A
S2144016000000C84238B504280FD8012484400C4D49
S2144016106C634FF47A7000FB01F00A49A1FB00307E
S2144016208009094B98472C6338BD4FF47A7000FB0D
S21440163001F00449A1FB00308009034B984738BDB0
S21440164000140E40D34D6210053B40002DE9F04F8C
S21440165095B0C2B2AC4B0E93DC230F931446AB4B03
S21440166053F82230109340F2CF33ADF84430ADF803
S21440167046300A238DF84830DFF8BC825500AE1855
S21440168008EB860600207072DFF8DCE2D7000EEB2F
S21440169007019F4B0A9253F8223003EB83035B000B
S2144016A00B7114234EF832309A4B984713909A4B4E
S2144016B098470D900A9905916B189B009A1D4244D5
S2144016C006920833434407937F1A944B03EBC703B1
S2144016D00493089601238B400993DB430B93DFF872
S2144016E08CA2DFF88CB24FF6FF778D4DC4EBC40862
S2144016F08A4B03EBC808A1463DE08A4B53F82910B5
S2144017004FF08040884B9847884B13F80930DBB23F
S214401710632B10DC6424854E224604994FF08040AB
S214401720834B98470120834B98470A3C16F809306C
S214401730DBB2A342F0DBD8F80C2004994FF080408F
S2144017407B4B984709EB49037B4A02EB8303012214
S2144017505A7200206F4B98471390784BDB6B13F010
S214401760806F4FF08062754B14BF5A631A636421D2
S2144017700DA8734B98474FF0FF31DAF80000714BD5
S21440178098473BF81920BA421ABF012393403B467C
S2144017906B616D4B33F81920BA421ABF0123934050
S2144017A03B466B6102232B603BF81960069B039314
S2144017B010AB93E807008DE807000EAB0CCB314624
S2144017C02846624CA047604B33F81940079A21469A
S2144017D028465F4B9847BE421ABF012303FA06F6D7
S2144017E03E46AE61BC421ABF012303FA04F43C46AF
S2144017F0AC6100231A461946DAF80000554CA0475B
S2144018004A4B13F80930DBB2D8F80C209A420AD07B
S214401810464B13F80920D2B2C8F80C2004994FF072
S2144018208040434B984710AB93E807008DE807008D
S2144018300EAB0CCB05990898474CA04701380528B5
S21440184087D801A353F820F061184000FB164000EB
S21440185085184000AD184000BD184000E51840000F
S2144018600523C8F80C302F4B53F829104FF0804012
S2144018703A4B984709EB49032F4A02EB8303002271
S2144018805A7266E7274B53F829104FF08040334B87
S2144018909847334A136809990B43136009EB490389
S2144018A0254A02EB830302225A7252E709EB4903A8
S2144018B0214A02EB830303225A724AE7194B53F834
S2144018C029104FF08040254B9847254A13680999C0
S2144018D00B43136009EB4903174A02EB83030422C8
S2144018E05A7236E709EB4903134A02EB8303052293
S2144018F05A7255210A981B4B9847194A13680B99F8
S2144019000B40136025E700BF00005041548640005E
S214401910F8864000853D40000538400070C70020EE
S21440192000000B40288740002D284000180000206B
S21440193011284000053B4000F0C50020000E0E4038
S214401940593A40006932400044864000D512400073
S2144019506913400075304000F111400037284000C0
S2144019608CC300200516400054C8002050C80020F4
S2144019703C8640002DE9F04F95B05FFA80F8C246AD
S214401980A8F1040303EBD3735B1005939A4B0E93B5
S2144019904FF47A730F93994B53F82830109397234C
S2144019A0ADF844304423ADF8463005238DF8483032
S2144019B0934D4FEA480606EB080405EB84040020E6
S2144019C06072AA23A3718F4A02EBC8018E4B53F86C
S2144019D0283003EB83030B71142342F838308B4BCB
S2144019E0984713908A4B98470D90CDF81C80A31DBE
S2144019F008930694012303FA08F30A93DB430B93F8
S214401A00844FA3462BE00524834B53F82A6026FADE
S214401A1004F505F5001505F207756D0206F01F067C
S214401A20012303FA06F6DFF82092CDF82480B0466C
S214401A30C5F830800520C8476E63013C14F0FF04AB
S214401A40F6D1DDF824802E6301238BF80930002080
S214401A506E4B9847139064210DA8704B98474FF0F3
S214401A60FF3138686E4B98479DF814206D4B53F8FD
S214401A7022104B0903F5001303F207735B0218F0BC
S214401A80010F01F01F014FF0010000FA01F114BFF1
S214401A9019635963644B53F822104B0903F500133E
S214401AA003F207735B02D86B01F01F01012303FAB0
S214401AB001F1014229D05D4B33F812104FF6FF7307
S214401AC099421ABF01238B404FF6FF73584D6B6106
S214401AD002232B60554B33F81240089B039310AB00
S214401AE093E807008DE807000EAB0CCB214628464E
S214401AF0504DA8474FF6FF739C421ABF012303FA86
S214401B0004F44FF6FF744A4B9C6100231A4619466C
S214401B103868494CA04710AB93E807008DE80700AB
S214401B200EAB0CCB07990698444CA04701380528C5
S214401B308DD801A353F820F0511B4000071A4000EF
S214401B40771B4000A71B4000AF1B4000DF1B400038
S214401B50314B53F82A20530903F5001303F2077359
S214401B605B0202F01F02012101FA02F25A630023CF
S214401B708BF809306BE7284B53F82A20530903F5B6
S214401B80001303F207735B0202F01F02012101FA01
S214401B9002F25A632A4A13680A990B4313600223D7
S214401BA08BF8093053E703238BF809304FE71A4B7D
S214401BB053F82A20530903F5001303F207735B0218
S214401BC002F01F02012101FA02F25A631C4A13680E
S214401BD00A990B43136004238BF8093037E7052333
S214401BE08BF8093064214046164B9847144A1368D0
S214401BF00B990B4013602AE70000B0405486400023
S214401C00F0C5002054C80020F8864000853D4000BE
S214401C1005384000E8C50020C4864000593A4000D8
S214401C2069324000A4864000848640004C864000CE
S214401C3000400B40D512400075304000F111400086
S214401C408CC3002005164000053B40000000000005
S214401C502DE9F04B82B04C4B984701900026344615
S214401C604A4D05F1600B4AE00133042B0DD0DEF8F7
S214401C700080E21807FA02F212EA080FF4D0DA00FF
S214401C8007FA02F21043E146EEE7B9F1000F08D139
S214401C900A1D002398469E46DFF818C10127B9461C
S214401CA005E0A867F4E701320833202B0BD0DCF8B8
S214401CB0001007FA02F00842F5D007FA03F14EEAA0
S214401CC0010EC846EFE7B8F1000F25D1304B9A5DBC
S214401CD0AB6F1343AB67082385F866302D4F5946E4
S214401CE038462D4B9847594638462C4B984708342B
S214401CF0E4B20136F6B2322101A8294B9847022EAB
S214401D000DD80020A867E867034681462146DFF8DD
S214401D10A4E00127BC46AAE7C5F87CE0D6E7002445
S214401D20AC67EC671F4E337985F8793030881E4BA8
S214401D30984713A3D3E900231C4FB8471C4B98473A
S214401D4085F87A00737985F87B30AB6F43F03003C3
S214401D50AB67B37985F87C3073885B0885F87D304F
S214401D60082385F866300B4E594630460A4B98474E
S214401D7059463046094B98472646BCE7AFF30080A5
S214401D8052B81E85EB5128400538400014C4002048
S214401D90488740000000014095244000A3234000AF
S214401DA0593A400080C30020ED4840000D4C4000AA
S214401DB0DD4D400088C300202DE9F04383B02E4B14
S214401DC09847019000242D4D4FF008062C4FDFF821
S214401DD0C0804AE085F89840C4EBC40303EB430256
S214401DE007EB8202927985F899205A1C02EB420250
S214401DF007EB8202927985F89A209A1C02EB4202FF
S214401E0007EB8202927985F89B20DA1C02EB4202AD
S214401E1007EB8202927985F89C201A1D02EB42025B
S214401E2007EB8202927985F89D205A1D02EB42020A
S214401E3007EB8202927985F89E20063303EB430334
S214401E4007EB83039B7985F89F3005F18009494667
S214401E5040460C4B9847494640460B4B9847013402
S214401E60E4B2322101A8094B984785F88660012CD8
S214401E70B0D90024F5E700BF0538400014C4002060
S214401E80F0C5002095244000A3234000593A400066
S214401E90000001402DE9F04782B0334B984701904F
S214401EA00024324D4FF00807314EDFF8D48054E01E
S214401EB0E30003EB041206EB8202527A18F8041091
S214401EC00A4385F8F8205A1C02EB420206EB8202CF
S214401ED0527A85F8F9209A1C02EB420206EB8202FF
S214401EE0527A85F8FA20DA1C02EB420206EB8202AE
S214401EF0527A85F8FB201A1D02EB420206EB82025C
S214401F00527A85F8FC205A1D02EB420206EB82020A
S214401F10527A85F8FD209A1D02EB420206EB8202B9
S214401F20527A85F8FE20073303EB430306EB830320
S214401F305B7A85F8FF3005F1E00ADFF848905146B5
S214401F4048460C4B9847514648460B4B98470134F9
S214401F50E4B2322101A8094B984785F8E670012C77
S214401F60A6D90024F5E700BF0538400014C4002079
S214401F70F0C5002095244000A3234000593A400075
S214401F80F4864000000001400022034B1A60012204
S214401F90024B5A71704700BF88C3002080C30020A0
S214401FA02DE9F04782B03C4B984701903B4CDFF818
S214401FB02891DFF828813A4EB51E2F1D38E0C047DD
S214401FC043E0384B984772B6374B984700214FF05E
S214401FD08040364CA04701214FF08040A047022168
S214401FE04FF08040A04703214FF08040A047FEE7D7
S214401FF02F4BB3F800E0BEF5487F0EDB2D4801239B
S2144020004FF0640C194610F8012F0CFB02F2724593
S21440201004DC0133072BF5D136E00021264B5A5C11
S214402020264B1A7030E04FF47A7101A8244B98473B
S214402030E36B13F0007F4FF0007314BF63632363BA
S214402040D9F80030B3F57A7FB9D8194B1B794B2BAA
S214402050B7D8DFF88CA04FF0FF31DAF80000194B04
S214402060984731462846184B98473846174B984766
S21440207000231A461946DAF80000DFF868A0D04771
S214402080134BDB79012BB3D0124B1B68002BCAD005
S2144020900122074B5A71C6E705384000000E0E4035
S2144020A082C30020F53740006501400037284000D5
S2144020B080C300204087400038874000140000203E
S2144020C0593A400069324000CD1440003514400073
S2144020D09CC300208CC3002090C30020891F400072
S2144020E050C800207530400070B582B0026BC36A9D
S2144020F0134001930024214DA84214BF002501251A
S2144021006E002E440BE0142C24D8019A04F10801EA
S21440211001238B40134213D10134172C2BD00F2CA4
S214402120F1D8019A0123A3401342F5D0C5EBC6036C
S2144021302344134A52F82330002BEDD09847EBE760
S214402140C5EBC60323440E4A52F82330002BE3D097
S2144021509847E1E7019A04F1090101238B401342B5
S214402160DAD0C5EBC6032344054A52F82330002B89
S214402170D2D09847D0E702B070BD00BF00400B40B9
S21440218024C5002030B4046E01238B4024EA0304A7
S2144021901578002D08BF002323430366446D4B008B
S2144021A00321994024EA010451789940214341652E
S2144021B030BC70474B780A78134303678A884B884D
S2144021C043EA02434367704700220260084B43607D
S2144021D0084B83604FF48023C3600261022303757B
S2144021E0012343758375C2750376437683767047BD
S2144021F080778E06808D5B0000230370012343703A
S21440220070470023037020234370FF23438040F62B
S214402210FF73838070470000036B13F0807F01D00C
S2144022201920704770B401230360CB7D002B14BF88
S2144022304FF0004500258B7D002B14BF4FF4000463
S21440224000240B7D1B0603F070630A69CE68324398
S21440225013434A7D120702F0405213438A685600E1
S2144022604A68B2FBF6F2013A120292B213432B438B
S214402270234343600B7E002B14BF4FF08073002334
S2144022800A6813434A7E002A14BF4FF000720022A9
S214402290134383608B7E1B0203F44073C0F8943074
S2144022A00E4B984205D00E4B98420CD0002070BC86
S2144022B070470C4B03F15C01002243F8042F8B421D
S2144022C0FBD10020F3E7084B03F15C01002243F802
S2144022D0042F8B42FBD10020E9E700BF00000B40F3
S2144022E000400B4020C500207CC5002008B50248B1
S2144022F0024B984708BD00BF00000B40E920400055
S21440230008B50248024B984708BD00BF00400B4046
S214402310E920400000B583B0134B98420CBF1F2005
S2144023201E20124B9847124B9B78FF2B1AD0EFF388
S2144023301083B3FA83F35B09019372B6BFF35F8FE2
S21440234000220C4B1A700199094A93780133937016
S21440235029B10122074B1A70BFF35F8F62B603B0F4
S2144023605DF804FBFEE700BF00400B40C10640009E
S2144023701CC500200A000020036823F00403036005
S2144023807047036843F0040303607047416070473A
S214402390816070470069704700EB4111D1F8100228
S2144023A070470A788B791B0403F4702343F40003C8
S2144023B000EB4210C0F81C3270470B680A791AB31B
S2144023C030B4DBB200EB4312D2F80042CD7924F4AD
S2144023D0702444EA0544C2F800424C792CB3CC68D9
S2144023E044F00054C2F804420C6944F00054C2F869
S2144023F00842D2F80032097923F0E06343EA0163E9
S214402400C2F8003230BC7047DBB200EB431000230A
S214402410C0F80032C0F80432C0F80832C0F81432AF
S214402420C0F81832C0F81C327047CC68C2F8044274
S2144024300C6900EB4313C3F80842DAE770B58B68C3
S21440244003F0C072B2F1C07F14BF002502250A789F
S21440245000EB4216D6F80C4224F060444C61C3F3BD
S21440246003438B71D6F814428C61042B02D9D6F8FC
S2144024701832CB6100EB4212D2F810328B6013F068
S214402480807F18BF45F00405014B9847284670BD2D
S214402490A32340000B7800EB4312D2F810228A6048
S2144024A012F4000F28D010B44A79FAB10A6942F003
S2144024B0005200EB4314C4F808228C6900EB431228
S2144024C0C2F814428A79042A04D9CC6900EB431234
S2144024D0C2F818428A79120402F4702200EB4310C4
S2144024E0C0F81C2200205DF8044B70470C6900EBD6
S2144024F04312C2F80842E0E70120704770B588B042
S214402500064600248DF80440044D00946946304643
S214402510A8470134082CF8D108B070BDBB23400052
S214402520F8B546F2A81303FB02F40B19013BB3FBC4
S214402530F4F3802B66D84FF4FA5404FB02F4B4EB61
S214402540510F61D84FF47A7303FB02F208274FF01D
S214402550FF363B4604E00133DBB214441A2B0CD062
S214402560B1FBF4F5802DF6D804FB1515B542F2D232
S21440257015B12E461F46EEE71F4602FB07F2B1FB9B
S214402580F2F1CBB2012B41D90446A7F10802036809
S21440259023F0010303601E4D5600B71805EB4707AE
S2144025A0BB78013B1B0103F07003787801380002CA
S2144025B000F4E0600343F878013800F00700034376
S2144025C03A79013A120302F440521343CAB2013A2E
S2144025D0120402F4FE021343636120460D4B9847F3
S2144025E0236843F00103236000230B49226901332B
S2144025F012F4001F01D18B42F8D10748181A18BFB1
S2144026000120F8BD0020F8BD0020F8BD0020F8BD30
S21440261050874000FD244000A0860100F0B48CB0F6
S21440262007460E4601AC114D0FCD0FC40FCD0FC45B
S21440263095E8070084E8070001AA002352F8040B37
S214402640B6FBF0F0B0FBF7F0B0F5807F07D901336A
S2144026500B2BF3D14FF6FF700CB0F0BC70470A2B33
S21440266094BF40EA03204FF6FF70F5E7BC87400072
S21440267070B506460D460C6844B1896820460C4B3A
S214402680984704464FF6FF7398420CD0686840B1AE
S214402690A968074B98474FF6FF73984205D044EA1F
S2144026A0004434600024204670BD0446FBE700BF6B
S2144026B01D26400070B40A684B6803F00F038C8AEE
S2144026C023430C8923438C7A43EA44238C7D43EA94
S2144026D00443CC7D43EA44430C7E43EA844300EB08
S2144026E04214C4F80032CB68C4F804320B69C4F80C
S2144026F00C328B7D3BB18C8B4B8B43EA044300EB17
S2144027004214C4F81832856C4FF001139340DB43F3
S2144027101D40CC7F04FA02F68C7F944044EA06447F
S2144027202C438464446C234091F8214004FA02F51B
S21440273091F82040944044EA0544234343640123EF
S214402740934091F82240002C4CD0046A1C4304620B
S21440275091F82440022C4AD0D0F8C050DC432540A3
S214402760C0F8C05091F82450012D07BF846E1C431A
S214402770856E2C40846691F82540022C3DD0D0F8DA
S214402780C0501B04DC432540C0F8C05091F825508B
S214402790012D39D0836E1C408466D200C46EFF2360
S2144027A0934024EA030491F8233003FA02F22243CA
S2144027B0C2660A6852B991F82C30012B8B6A23F016
S2144027C07F4308BF43F08073C0F8A0300B6B23F004
S2144027D07F43496B0B43203200EB4210436000209E
S2144027E070BC7047046A24EA03040462B0E7D0F879
S2144027F0C0401C43C0F8C040BDE7D0F8C04044EAE3
S2144028000343C0F8C030C8E7846E23438366C4E7FA
S2144028100B69934202D24FF6FF7070470B68CA604E
S21440282000EB4310C0F8082200207047012303FA4B
S21440283001F141607047012303FA01F1816070475E
S2144028401032012303FA02F203FA01F10A4302614D
S21440285070471032012303FA02F203FA01F10A43E9
S214402860426170472DE9F04180B90C469046002AF7
S2144028700FDD8F18084E094D306821462B68984763
S2144028800134BC42F8D14046BDE8F0814FF0FF38F5
S214402890F9E78046F7E700BFE4C50020DCC5002026
S2144028A00138022815D82DE9F0410E4614469AB153
S2144028B00D46DFF838800C4FD8F8000015F8011B9D
S2144028C03B68984700280ADBA81B013CF4D1BDE8CA
S2144028D0F0814FF0FF3070471046BDE8F0814FF072
S2144028E0FF30BDE8F08100BFE0C50020E4C5002011
S2144028F010B4AC2303600B684A68B3FBF2F31B09C1
S2144029005C1E4FF6FE7294420CD803628B6843609E
S21440291040F20223C0F820315023036000205DF8C7
S214402920044B70470120FAE7436913F0020F1ABFC1
S214402930C161002001207047436913F0010F1DBF9D
S21440294083690B70002001207047436913F0020F23
S2144029501DBFC1F30801C1610020012070474369D3
S21440296013F0010F05D08369C3F308030B60002002
S21440297070470120704700F1080343604FF0FF3274
S2144029808260C360036100230360704700230361D5
S214402990704743684B609A688A609A68516099604D
S2144029A00861036801330360704730B40D68B5F1C1
S2144029B0FF3F02D000F1080202E0026904E01A4636
S2144029C053681C68A542FAD253684B6099608A6087
S2144029D05160086103680133036030BC7047036987
S2144029E04268816891608268416851605A68904246
S2144029F004BF82685A60002202611A68013A1A606F
S214402A001868704782B0002301930D4B1B68B3F1E2
S214402A10FF3F08D04FF0500383F31188BFF36F8F0A
S214402A20BFF34F8FFEE74FF0500383F31188BFF399
S214402A306F8FBFF34F8F019B002BFCD002B07047C7
S214402A401000002008480068006880F308884FF0AF
S214402A50000080F3148862B661B6BFF34F8FBFF3B1
S214402A606F8F00DF00BF000008ED00E0DFF80C00CD
S214402A70016841F4700101607047000088ED00E095
S214402A804FF0807340F8043C21F0010140F8081CE8
S214402A90054B40F80C3C40F8202C6FF0020340F801
S214402AA0243C4438704700BF052A40000000000020
S214402AB0074B19680868B0E8F04F80F30988BFF301
S214402AC06F8F4FF0000080F311887047AFF300809F
S214402AD07CC200204FF0500383F31188BFF36F8F02
S214402AE0BFF34F8F0A4A136801331360012B0DD191
S214402AF0084B1B6813F0FF0F08D04FF0500383F3CA
S214402B001188BFF36F8FBFF34F8FFEE7704700BF4C
S214402B101000002004ED00E0094B1B6843B94FF05D
S214402B20500383F31188BFF36F8FBFF34F8FFEE7D9
S214402B30013B034A13600BB983F31188704700BF0B
S214402B401000002000000000000000000000000010
S214402B50EFF30980BFF36F8F154B1A681EF0100F06
S214402B6008BF20ED108A20E9F04F10602DE90900DB
S214402B704FF0500080F31188BFF34F8FBFF36F8F35
S214402B8000F0ECFF4FF0000080F3118809BC196894
S214402B900868B0E8F04F1EF0100F08BFB0EC108A7F
S214402BA080F30988BFF36F8F704700BFAFF3008094
S214402BB07CC2002008B54FF0500383F31188BFF362
S214402BC06F8FBFF34F8F054B984718B14FF0805229
S214402BD0034B1A60002383F3118808BD1138400068
S214402BE004ED00E0054B00221A6005490A600549DD
S214402BF0054A116007221A60704700BF10E000E0E7
S214402C0018E000E0AFAD010014E000E03C4B1A686D
S214402C103C4B9A4208D14FF0500383F31188BFF3E0
S214402C206F8FBFF34F8FFEE7354B1A68364B9A428D
S214402C3008D14FF0500383F31188BFF36F8FBFF373
S214402C404F8FFEE710B582B0304B1A78D2B2019261
S214402C50FF221A701B78DBB28DF803309DF80330E4
S214402C6003F050032A4A137007222A4B1A609DF835
S214402C70033013F0800F12D0062300E00B469DF879
S214402C8003205200D2B28DF803209DF80320591E2F
S214402C9012F0800FF2D11F4A1360032B08D04FF07A
S214402CA0500383F31188BFF36F8FBFF34F8FFEE758
S214402CB01B0203F4E063174A1360019BDBB2134A1E
S214402CC01370154B1A6842F470021A601A6842F084
S214402CD070421A60114B98470024114B1C60114BF0
S214402CE09847114A136843F0404313600F4B984788
S214402CF00F4B98470F4B9847204602B010BD00BF79
S214402D0000ED00E071C20F4170C20F4100E400E0E8
S214402D106C0A0020700A002020ED00E0E52B400001
S214402D20100000206D2A400034EF00E0452A4000A5
S214402D305D3B4000052A400038B5044610F0070FBA
S214402D401CBF20F007040834114B9847114B1B68F2
S214402D5093B1114B1B681C444BF2F772944211D846
S214402D60A3420FD20B4A15681D440B4B1C600B4BFD
S214402D7098474DB1284638BD094B23F00703054A0E
S214402D801360E6E7054B9847064B98470025F1E762
S214402D90F5374000740A002078C2002045394000CC
S214402DA0800A00203341400040B14FF0500383F387
S214402DB01188BFF36F8FBFF34F8FFEE77047000059
S214402DC010B50446044B9847A46B044B9847B4FA96
S214402DD084F0400910BD00BFD52A4000192B4000A2
S214402DE070B504461646856B026C52B90368002BD4
S214402DF02AD14068184B9847002363600135A56385
S214402E0070BD6EB98068154B9847A368226C134412
S214402E10A3606268934219D32368A3600020EDE75D
S214402E20C0680E4B9847236C5B42E2681A44E260E7
S214402E3021688A4202D262681344E360022E07D1B8
S214402E4045B1013D0020D9E70020D7E70020D5E76F
S214402E500020D3E70020D1E7713E400015554000E2
S214402E6070B582B00190846C64B1A26BE36B9A42F9
S214402E7011D34FF0500383F31188BFF36F8FBFF326
S214402E804F8FFEE74FF0500383F31188BFF36F8FE9
S214402E90BFF34F8FFEE7A26B934203D8002630461F
S214402EA002B070BD0A4694F845506DB201A920465E
S214402EB00A4B98470646B5F1FF3F0AD1636A002B96
S214402EC0EDD004F12400064B9847002818BF012691
S214402ED0E5E76B1C5BB284F84530E0E7E12D400047
S214402EE0453C40002DE9F0410546234B984795F870
S214402EF0454064B2002C19DD204EDFF88C80204F10
S214402F0008E06B6A93B105F12400B84760B9013C0C
S214402F1064B25CB1AB6C002BF3D000212846B047BE
S214402F200028F4D0C047F2E7C047F0E7FF2385F813
S214402F304530144B9847104B984795F8444064B238
S214402F40002C12DD2B6983B105F110070C4EDFF81B
S214402F50388004E0013C64B23CB12B692BB1384662
S214402F60B0470028F6D0C047F4E7FF2385F8443042
S214402F70044B9847BDE8F081D52A4000612E4000BA
S214402F80453C4000192B4000793D400038B530B3F1
S214402F9004460D461C4B98472268216CE36B03FBA6
S214402FA001F3D01860600020A063A2605B1A13444F
S214402FB0E360FF2384F8443084F84530C5B923697C
S214402FC0EBB104F11000114B9847C0B14FF080525E
S214402FD00F4B1A60BFF34F8FBFF36F8F0FE04FF06A
S214402FE0500383F31188BFF36F8FBFF34F8FFEE715
S214402FF004F11000074DA84704F12400A847064BEB
S2144030009847012038BD00BFD52A4000453C4000C7
S21440301004ED00E077294000192B4000F8B540B990
S2144030204FF0500383F31188BFF36F8FBFF34F8F7A
S214403030FEE7064617460D4601FB00F054300B4BA4
S2144030409847044678B11DB100F15403036000E090
S2144030502060E663256401212046054B984784F8A6
S21440306050700023A3642046F8BD00BF392D4000B1
S2144030708D2F40002DE9F04F85B0019268B104468F
S214403080A1B1022B1ED04FF000081D460E465F4FE2
S214403090DFF8A4A1DFF8809167E04FF0500383F398
S2144030A01188BFF36F8FBFF34F8FFEE7026C002A85
S2144030B0E7D04FF0500383F31188BFF36F8FBFF311
S2144030C04F8FFEE7E26B012A08D04FF0500383F3A0
S2144030D01188BFF36F8FBFF34F8FFEE74FF00008A6
S2144030E0D3E72A4631462046494B9847A36C93B1CE
S2144030F029462046474B984738B14FF08052464BBA
S2144031001A60BFF34F8FBFF36F8F444B9847012031
S21440311005B0BDE8F08F636A73B104F12400404BFC
S21440312098470028F1D04FF080523B4B1A60BFF3CF
S2144031304F8FBFF36F8FE8E70028E6D04FF08052FE
S214403140354B1A60BFF34F8FBFF36F8FDDE7334BBE
S21440315098470020DCE702A8D04713E02046314BD2
S2144031609847314B98474FF00108B847A26BE36B3E
S2144031709A42B6D3022DB4D0019B002BE7D0B8F1CB
S214403180000FE8D0254B9847284B9847B84794F807
S21440319044305BB2B3F1FF3F04BF002384F84430B1
S2144031A094F845305BB2B3F1FF3F04BF002384F888
S2144031B045301A4B984701A902A81D4B9847E8B9D5
S2144031C0B847D4F838B0D4F83C80144B9847C34539
S2144031D0C4D1019904F11000164B98472046114B74
S2144031E09847114B98470028BDD14FF08053C9F8F7
S2144031F00030BFF34F8FBFF36F8FB4E72046094BC5
S2144032009847094B9847002082E700BFD52A4000E0
S214403210E12D4000612E400004ED00E0192B4000F7
S214403220453C4000E52E400045394000F53740001B
S214403230ED3C40000D3C4000D53C400038B50246D1
S21440324000210120064B9847044638B100214160D2
S2144032500160C1600B460A46024DA847204638BD6D
S2144032601D304000753040002DE9F04385B0019197
S21440327058B10446036C8BB14FF0500383F311886A
S214403280BFF36F8FBFF34F8FFEE74FF0500383F3CC
S2144032901188BFF36F8FBFF34F8FFEE70025A94617
S2144032A0514EDFF87881514F46E0013BA3632368D7
S2144032B013B94F4B98476060236963B104F110001F
S2144032C04C4B984738B14FF08052484B1A60BFF38A
S2144032D04F8FBFF36F8F484B98470125284605B060
S2144032E0BDE8F08345B14FF0500383F31188BFF338
S2144032F06F8FBFF34F8FFEE73F4B9847EEE702A82E
S214403300C04723E0B04760683C4B984705463A4B79
S214403310984742E020463A4B98473A4B984709E050
S2144033202046374B9847374B98472046364B98476A
S214403330002846D14FF00109B047A36B002BB4D10B
S214403340019B002BCED0B9F1000FD8D02A4B98471E
S2144033502E4B9847B04794F844305BB2B3F1FF3FEA
S21440336004BF002384F8443094F845305BB2B3F190
S214403370FF3F04BF002384F845301F4B984701A900
S21440338002A8234B98470028CAD120461E4B984790
S2144033900028BFD02368002BB4D0019904F1240044
S2144033A01C4B98472046164B9847164B9847002884
S2144033B0C0D14FF080533B60BFF34F8FBFF36F8F4A
S2144033C0B8E7002D8AD0084B9847636A53B1236B01
S2144033D01968C1F1050160680F4B9847064B98473E
S2144033E000257BE70021F6E7D52A400004ED00E003
S2144033F0F53F4000453C4000192B4000B13D4000A1
S214403400E52E400045394000C12D4000F5374000CC
S214403410ED3C40000D3C40002D3F4000D53C400078
S214403420084B1B681B683BB1064B1B68DB68DB68B8
S2144034305A68054B1A6070474FF0FF32024B1A60CD
S214403440704700BF80C2002030C3002070B50446DD
S2144034500E461D4B1D681D4B186804301C4B984784
S21440346048B91A4B1A681B490B68D06A0122824039
S21440347023EA02030B60B4F1FF3F13D02C44134BF6
S2144034801B685C60A54216D8134B18680F4B19682A
S2144034900431124B9847124B1B689C423CBF104B62
S2144034A01C6070BD002EE9D0084B196804310D48E9
S2144034B00D4B984770BD0D4B1868044B1968043186
S2144034C0064B984770BD00BF78C300207CC20020E2
S2144034D0DF29400000C3002080C20020AB29400006
S2144034E030C3002050C300209329400084C20020EF
S2144034F080B5184DDFF87880DFF8789001E0164BFD
S21440350098472B68C3B1154F154EC047FB68DC681B
S214403510201DB047134A1368013B13602B68013BDC
S2144035202B60114B9847206BDFF84CA0D0472046C5
S214403530D0472B68002BE8D10C4B1B68012BDED9FB
S2144035404FF08053C9F80030BFF34F8FBFF36F8FF3
S214403550D5E700BFF0C200203141400064C30020E0
S214403560DF294000ECC20020192B400088C2002012
S214403570D52A400004ED00E0A92D40002DE9F04F8B
S21440358083B083460D460193DDF834A0960030465E
S214403590604B9847002800F08D8007465C205D4BC6
S2144035A098470446002800F0828007633246A521EB
S2144035B03846594B9847043E236B1E4426F0070670
S2144035C02B7884F834302B7863B12B4604F13402E0
S2144035D005F10F01587802F8010F13F8010F08B1F2
S2144035E08B42F7D1002784F843700C9D042D28BFEA
S2144035F00425E562E564276504F104084046DFF8E3
S2144036006C91C84704F11800C8472461C5F1050508
S214403610A5616462676584F85870019A59463046D9
S2144036203E4B98472060BAF1000F01D0CAF80040E0
S2144036303B4B98473B4A1368013313603A4B1B6831
S214403640002B3AD0394B1B683BB9374B1B68DA6ABC
S214403650E36A9A429CBF344B1C60354A1368013378
S21440366013606364E06A334A1168012383400B4366
S214403670136000EB800041462F4B03EB80002F4B3E
S21440368098472F4B9847294B1B68002B3BD0264B1F
S2144036901B68DA6AE36A9A4239D24FF08052294B65
S2144036A01A60BFF34F8FBFF36F8F01202CE0384670
S2144036B0254B98474FF0FF3026E01B4B1C601368A5
S2144036C0012BCAD11C4E3046204DA84706F11400A7
S2144036D0A84706F12800A84706F13C00A84706F18F
S2144036E05000A8471A4F3846A8471A4E3046A847B3
S2144036F01948A8471948A8471948A847194B1F60B2
S214403700194B1E60A9E7012003B0BDE8F08F0120E9
S214403710FAE700BF392D400049564000812A400054
S214403720D52A4000ECC200207CC200204CC30020BA
S214403730FCC2002000C3002088C20020932940001D
S214403740192B400004ED00E0A92D400077294000E9
S21440375004C3002018C3002038C3002064C30020E0
S21440376050C3002080C2002084C200208D29400023
S21440377010B582B0174B0193002300934FF480722C
S21440378015491648164CA047012804D0B0F1FF3F13
S21440379016D002B010BD4FF0500383F31188BFF32C
S2144037A06F8FBFF34F8F4FF0FF320E4B1A600122E0
S2144037B00D4B1A6000220D4B1A600D4B9847E8E7F8
S2144037C04FF0500383F31188BFF36F8FBFF34F8FD3
S2144037D0FEE700BF2CC30020E8874000F1344000DD
S2144037E07D35400030C300204CC3002078C3002005
S2144037F00D2C4000024A136801331360704700BF27
S214403800F8C20020014B1868704700BF78C30020FC
S2144038102DE9F0473D4B1B68002B69D13C4B1D689A
S21440382001351D60C5B93B4B1B681B6843B14FF063
S214403830500383F31188BFF36F8FBFF34F8FFEE7BC
S214403840344A1168344B186810601960334A13685C
S21440385001331360324B9847324B1B689D420CD263
S2144038600024314B1B68DB6A03EB83039B002F4A23
S214403870D358022B28BF01243FE00024DFF8949061
S214403880DFF8BC802A4F1FE04FF0FF32254B1A600E
S214403890E7E7244A1360E4E706F11800C047F06AF9
S2144038A03A680123834013433B6000EB8000514657
S2144038B01E4B03EB80001F4B98471B4B1B68F26A5E
S2144038C0DB6A9A4228BF0124D9F800301B68002BD7
S2144038D0DAD0D9F80030DB68DE6873689D42D8D30A
S2144038E006F1040A5046C047B36A002BD4D1D6E747
S2144038F0114A1368013313600024104B1B68002BD9
S2144039000CBF20460120BDE8F08700BFF8C200206B
S21440391078C3002080C2002084C2002034C3002028
S2144039202134400030C300207CC2002088C20020E2
S21440393000C3002093294000F4C200207CC300202E
S214403940DF294000354B1B6843B94FF0500383F3E3
S2144039501188BFF36F8FBFF34F8FFEE72DE9F0411D
S2144039602F4B98472D4B1A68013A1A601B68002B5C
S21440397050D12C4B1B682BB900242B4B9847204624
S214403980BDE8F0810024294F294E2A4D3B6803B3F9
S214403990FB68DC6804F11800B04704F104084046B0
S2144039A0B047E06A2A680123834013432B6000EB4C
S2144039B080004146204B03EB8000204B9847204B2D
S2144039C01B68E26ADB6A9A42E0D301221D4B1A600A
S2144039D0DCE70CB11C4B98471C4B1C686CB11C4F69
S2144039E0184E012501E0013C04D0B8470028FAD023
S2144039F03560F8E70022154B1A60124B1B685BB126
S214403A004FF08052134B1A60BFF34F8FBFF36F8F48
S214403A100124B2E70024B0E70024AEE7F8C2002055
S214403A20D52A4000ECC20020192B400038C30020A5
S214403A30DF29400000C3002088C2002093294000B0
S214403A407CC200207CC3002021344000F4C2002009
S214403A501138400004ED00E038B550B1054689B94C
S214403A604FF0500383F31188BFF36F8FBFF34F8F30
S214403A70FEE74FF0500383F31188BFF36F8FBFF319
S214403A804F8FFEE7194B1B6843B14FF0500383F34B
S214403A901188BFF36F8FBFF34F8FFEE70C46144B72
S214403AA09847144B18682A681444904214D2A2428D
S214403AB016D92C60A04203D20021201A0E4B9847FC
S214403AC00E4B984780B94FF080520D4B1A60BFF3AB
S214403AD04F8FBFF36F8F38BDA24203D8A04201D3A9
S214403AE02C60EDE72C60E7E738BD00BFF8C2002049
S214403AF0F537400078C300204D344000453940003B
S214403B0004ED00E010B5A8B104460F4B1B6843B166
S214403B104FF0500383F31188BFF36F8FBFF34F8F7F
S214403B20FEE70A4B984700212046094B9847094B29
S214403B30984738B94FF08052074B1A60BFF34F8F03
S214403B40BFF36F8F10BD00BFF8C20020F5374000AE
S214403B504D3440004539400004ED00E0254B1B68DD
S214403B6033BB10B50022244B1A60244B1A681B68DE
S214403B7012681B6B9A4205D8204B18681968343176
S214403B801F4B98471F4B1B68B3FA83F3DBB2C3F156
S214403B901F0303EB830292001B498A5862B94FF019
S214403BA0500383F31188BFF36F8FBFF34F8FFEE749
S214403BB00122114B1A607047134A9900C81802EB4D
S214403BC0800044686468446019440246083294425F
S214403BD009D003EB83030C4A02EB83035B68DA6885
S214403BE0064B1A6010BD6068074A02EB81025060BF
S214403BF0EFE700BFF8C200207CC300207CC2002054
S214403C001941400000C3002088C2002040B94FF050
S214403C10500383F31188BFF36F8FBFF34F8FFEE7D8
S214403C2010B50C46044B19681831044B98470121CF
S214403C302046034B984710BD7CC20020AB2940006D
S214403C404D34400038B5C368DC682CB304F1180521
S214403C502846184B9847184B1B6833BB251D2846EB
S214403C60144B9847E06A154A1168012383400B437A
S214403C70136000EB80002946114B03EB8000114B8C
S214403C809847114B1B68E26ADB6A9A4283BF012061
S214403C900E4B1860002038BD4FF0500383F3118858
S214403CA0BFF36F8FBFF34F8FFEE729460848054B9B
S214403CB09847E6E7DF294000F8C2002000C300200E
S214403CC088C20020932940007CC200207CC300208C
S214403CD038C30020034B1B680360034B1B684360DC
S214403CE0704700BF34C3002078C30020E8B170B5E9
S214403CF0054619B30C461B4B98471B4B1A68696818
S214403D002368B3F1FF3F29D0184800682E688642E2
S214403D1001D08A4224D2521A9A4218D300232360F2
S214403D200124134B9847204670BD4FF0500383F351
S214403D301188BFF36F8FBFF34F8FFEE74FF05003EE
S214403D4083F31188BFF36F8FBFF34F8FFEE79B1A45
S214403D5023602846074B98470024E2E70024E0E724
S214403D600124DEE7D52A400078C3002034C3002073
S214403D70192B4000D53C40000122014B1A60704789
S214403D807CC30020034660B1196B0B78A52B0BD182
S214403D904B1C581A13F8012BA52AFAD0C0F38F00F3
S214403DA07047024B1B68EFE70020F7E77CC2002015
S214403DB0002850D038B50446C26A28490968C96AFE
S214403DC08A423FD28169002905DB24490968C96ACD
S214403DD0C1F10501816102EB8202214901EB8202B9
S214403DE06169914205D01D4A1268D26AE26201209A
S214403DF038BD251D28461B4B984770B9E26A02EB32
S214403E0082039B001649CB583BB9174803680121EB
S214403E1001FA02F223EA02020260104B1B68D86ADB
S214403E20E062114A1168012404FA00F30B43136060
S214403E3000EB800029460A4B03EB80000B4B98476B
S214403E40204638BD054A1268C06CD36A98422CBFDB
S214403E500020012038BD0020704700BF7CC20020F3
S214403E6088C20020DF29400000C30020932940007C
S214403E7000284AD038B50446274A1268904208D0EF
S214403E804FF0500383F31188BFF36F8FBFF34F8F0C
S214403E90FEE7026D42B94FF0500383F31188BFF33B
S214403EA06F8FBFF34F8FFEE7013A0265C06AE16C41
S214403EB088422CD0002A2CD1251D2846174B9847DF
S214403EC068B9E16A01EB81039B00154AD35833B9C0
S214403ED01448036801228A4023EA02030360E06C28
S214403EE0E062C0F10503A3610E4A1168012404FA9A
S214403EF000F30B43136000EB80002946084B03EBAE
S214403F008000094B9847204638BD00207047002067
S214403F1038BD002038BD00BF7CC20020DF294000ED
S214403F2088C2002000C3002093294000002855D0B6
S214403F3038B50446006D40B94FF0500383F31188FE
S214403F40BFF36F8FBFF34F8FFEE7E26C8A4238BFF6
S214403F500A46E16A914201D0012800D038BD204887
S214403F600068844208D14FF0500383F31188BFF3B2
S214403F706F8FBFF34F8FFEE7E262A0690028A4BFB1
S214403F80C2F10502A26101EB8101164A02EB8101F2
S214403F9062698A42E2D1251D2846134B984768B984
S214403FA0E16A01EB81039B000E4AD35833B90F48B0
S214403FB0036801228A4023EA02030360E06A0B4A50
S214403FC01168012383400B43136000EB80002946B1
S214403FD0044B03EB8000064B9847BFE7704700BF93
S214403FE07CC2002088C20020DF29400000C3002099
S214403FF093294000054B1B6823B1044B1A68136D88
S21440400001331365014B1868704700BF7CC200201F
S214404010F0B583B005460C4600230193184B9842F2
S2144040200AD0184B98420FD0174B984214D0174BD3
S2144040309D421BD003B0F0BD1F46154E2146384664
S214404040B0470028FAD1F2E71E46114D21463046C9
S214404050A8470028FAD1EDE71E460E4D01A9304686
S214404060A8470028FAD1019B2370E3E71E46094D76
S21440407001A93046A8470028FAD1019B2370D9E70A
S21440408000060E400006064000000A4000400A4077
S214404090392940005F29400070B50C46184B9842BD
S2144040A00AD0184B984210D0174B984216D0174B50
S2144040B098421CD0002070BD1E46154D2146304605
S2144040C0A8470028FAD1012070BD1E46104D214653
S2144040D03046A8470028FAD1012070BD1E460D4D37
S2144040E021463046A8470028FAD1012070BD1E461A
S2144040F0084D21463046A8470028FAD1012070BD19
S21440410000060E400006064000000A4000400A40F6
S214404110292940004B29400008B50A460146024876
S214404120024B9847FEE700BF0C884000ED54400025
S21440413070474FF0500383F31188BFF36F8FBFF380
S2144041404F8FFEE770B584B01F4B98471F4D204BEE
S2144041501D60204B9847204C204B1C60204A214B2A
S2144041601A60214A214B1A6001954FF4E1330293BD
S2144041704FF40063039307201D4B984701A9204640
S2144041801C4B98471C4D2B68002198681B4CA04739
S2144041902B6800215868A0472B6800219868A047E4
S2144041A01748184EB047184D2846184CA047184B8D
S2144041B098471848B0472846A047174B9847174B8C
S2144041C09847002004B070BDFD01400080778E0601
S2144041D098C300206502400000060E40E4C500205B
S2144041E099404000E0C5002011404000DCC500205A
S2144041F0C1064000F12840002000002091574000B2
S214404200F0874000ED544000FC8740008157400056
S214404210350D400000884000F10D400071374000E9
S214404220F0B58BB0044600F071F8334B93F900506C
S2144042306B1C06460AD02146204601F013F9074675
S21440424020B90021204601F0EFF810B930460BB0F7
S214404250F0BD2A4B08972046019300F059FBCDE964
S2144042600401CDE902012046CDB9254B4FF060420E
S2144042700021CDE9062301F0C3F8002833D00223FD
S2144042800093684600F094F8A8B1089BC3B9DDE9EE
S214404290060100F0C3FD064630460BB0F0BD194B94
S2144042A000220021CDE9062301F0AAF868B10223D6
S2144042B09D420093E5D101F0EBF822230360E4E74A
S2144042C001F0E6F8089B0360E1E70123022D009326
S2144042D00BD101F0DDF8212303600B4800F06AF8AB
S2144042E0CDE90601D1E701230093684600F060F867
S2144042F00028F2D1EDE700BF1C00002024884000D3
S214404300FFFFEFC70000F0FFEC87400030F00043AF
S21440431070B532D00028014604463CDBB0F1FF4F72
S21440432028DAB0F5000F2EDB0022E0157F38104467
S214404330C50F284400F07CFEC4F316040646C5F1BB
S2144043407F0044EAC05000F03BF816490546304628
S21440435000F0C2FE14490446284600F0BDFE014661
S214404360204600F0B1FD11490446304600F0B4FE48
S2144043700146204600F0A8FD70BD00214FF04C409D
S21440438000F05EFF70BD4FF0984100F0A5FE6FF064
S21440439018020446C9E700F095FD002100F050FFE2
S2144043A070BD00BFDB275435D95BDE3E80209A3E89
S2144043B00020704700200149704700BF0000F87F8A
S2144043C02DE9F84F30F000432DD000280146044632
S2144043D04ADBB0F1FF4F3BDAB0F5000F3CDB00267E
S2144043E08D4AC4F316052A4402F40002E41582F00E
S2144043F07E507F3C34444FF07E51284304EBD254E9
S21440440000F060FD05F10F03C3F316030F2B0646BD
S21440441031DC002100F0F4FF002800F094804CB915
S2144044200020BDE8F88F00214FF04C4000F008FF18
S214404430BDE8F88F204600F0FBFD7849054600F0C1
S2144044404BFE77490446284600F046FE0146204685
S21440445000F03AFDBDE8F88F4FF0984100F03CFE82
S2144044606FF018060446BBE700F02CFD002100F074
S214404470E7FEBDE8F88F4FF0804100F025FD01468D
S214404480304600F0DDFE8046204600F0D1FD414635
S2144044908146404600F020FE0146834600F01CFE62
S2144044A06049DFF8A0A1074600F016FE5E4900F01E
S2144044B00BFD394600F010FE5C4900F005FD39461C
S2144044C000F00AFE5A4900F0FFFC594600F004FE90
S2144044D058498346384600F0FFFD574900F0F4FC43
S2144044E0394600F0F9FD554900F0EEFC394600F03B
S2144044F0F3FD0146584600F0E7FCC5F55713AA44BD
S21440450003F5227343EA0A03002B074665DD4FF0A6
S2144045107C51304600F0E0FD314600F0DDFD0546BA
S214404520002C32D12946384600F0CEFC414600F0F9
S214404530D3FD0146284600F0C5FC0146304600F053
S214404540C1FCBDE8F88F3E49304600F0C5FD014647
S2144045504FF07C5000F0B6FC31460546304600F041
S214404560BBFD0146284600F0B7FD0546002C2ED080
S214404570204600F05DFD2949074600F0ADFD28497C
S2144045800446384600F0A8FD14E02449484600F0AA
S214404590A3FD29460446384600F096FC414600F006
S2144045A09BFD1F490746484600F096FD01463846A3
S2144045B000F08AFC0146284600F084FC314600F0B4
S2144045C081FC0146204600F07DFCBDE8F88F0146A0
S2144045D0304600F077FCBDE8F88F7CB10F4948467E
S2144045E000F07AFD39460446304600F06BFC414602
S2144045F000F072FD0A4905464846C3E70146304684
S21440460000F060FC414600F067FD0146304600F091
S21440461059FCBDE8F88F00BF20FB4A008071313F4F
S214404620D1F717379788173E25333A3E2549923EAD
S214404630ABAA2A3F4FD01C3E298E633ECDCCCC3E03
S214404640ABAAAA3E305CCFFF81F0004102E000BF3B
S21440465083F0004330B54FEA41044FEA430594EAFD
S214404660050F08BF90EA020F1FBF54EA000C55EA38
S214404670020C7FEA645C7FEA655C00F0E2804FEA09
S2144046805454D4EB5555B8BF6D420CDD2C4480EAEB
S214404690020281EA030382EA000083EA010180EA1B
S2144046A0020281EA0303362D88BF30BD11F0004F69
S2144046B04FEA01314FF4801C4CEA113102D040429F
S2144046C061EB410113F0004F4FEA03334CEA1333DA
S2144046D002D0524263EB430394EA050F00F0A780F2
S2144046E0A4F10104D5F1200E0DDB02FA0EFC22FAED
S2144046F005F2801841F1000103FA0EF2801843FAE1
S21440470005F359410EE0A5F120050EF1200E012AD1
S21440471003FA0EFC28BF4CF0020C43FA05F3C0180F
S21440472051EBE37101F0004507D54FF0000EDCF188
S214404730000C7EEB00006EEB0101B1F5801F1BD331
S214404740B1F5001F0CD349085FEA30004FEA3C0C35
S21440475004F101044FEA445212F5800F80F09A802B
S214404760BCF1004F08BF5FEA500C50F1000041EB2F
S214404770045141EA050130BD5FEA4C0C404141EB33
S214404780010111F4801FA4F10104E9D191F0000F5A
S21440479004BF01460020B1FA81F308BF2033A3F1DD
S2144047A00B03B3F120020CDA0C3208DD02F1140CD4
S2144047B0C2F10C0201FA0CF021FA02F10CE002F10F
S2144047C01402D8BFC2F1200C01FA02F120FA0CFC08
S2144047D0DCBF41EA0C019040E41AA2BF01EB045151
S2144047E0294330BD6FEA04041F3C1CDA0C340EDC4F
S2144047F004F11404C4F1200220FA04F001FA02F392
S21440480040EA030021FA04F345EA030130BDC4F14F
S2144048100C04C4F1200220FA02F001FA04F340EA44
S2144048200300294630BD21FA04F0294630BD94F0F5
S214404830000F83F4801306BF81F480110134013DDC
S2144048404EE77FEA645C18BF7FEA655C29D094EA4D
S214404850050F08BF90EA020F05D054EA000C04BFCB
S2144048601946104630BD91EA030F1EBF00210020B6
S21440487030BD5FEA545C05D14000494128BF41F055
S214404880004130BD14F580043CBF01F5801130BDB9
S21440489001F0004545F0FE4141F470014FF0000044
S2144048A030BD7FEA645C1ABF194610467FEA655CF5
S2144048B01CBF0B46024650EA013406BF52EA033597
S2144048C091EA030F41F4002130BD00BF90F0000F85
S2144048D004BF0021704730B54FF4806404F13204C1
S2144048E04FF000054FF0000150E700BF90F0000F7A
S2144048F004BF0021704730B54FF4806404F13204A1
S21440490010F0004548BF40424FF000013EE700BF70
S21440491042004FEAE2014FEA31014FEA02701FBF00
S21440492012F07F4393F07F4F81F06051704792F0D2
S214404930000F14BF93F07F4F704730B54FF460744C
S21440494001F0004521F0004120E700BF50EA010297
S21440495008BF704730B54FF000050AE050EA010244
S21440496008BF704730B511F0004502D5404261EBB4
S21440497041014FF4806404F132045FEA915C3FF4F5
S214404980DCAE4FF003025FEADC0C18BF03325FEA8E
S214404990DC0C18BF033202EBDC02C2F1200300FA43
S2144049A003FC20FA02F001FA03FE40EA0E0021FA68
S2144049B002F11444C1E600BF70B54FF0FF0C4CF452
S2144049C0E06C1CEA11541DBF1CEA135594EA0C0F08
S2144049D095EA0C0F00F0DEF82C4481EA030621EA43
S2144049E04C5123EA4C5350EA013518BF52EA03357E
S2144049F041F4801143F4801338D0A0FB02CE4FF030
S214404A000005E1FB02E506F00042E0FB03E54FF05F
S214404A100006E1FB03569CF0000F18BF4EF0010E57
S214404A20A4F1FF04B6F5007F64F5407404D25FEA53
S214404A304E0E6D4146EB060642EAC62141EA555106
S214404A404FEAC52040EA5E504FEACE2EB4F1FD0C48
S214404A5088BFBCF5E06F1ED8BEF1004F08BF5FEAC6
S214404A60500E50F1000041EB045170BD06F0004678
S214404A7046EA010140EA020081EA0301B4EB5C0425
S214404A80C2BFD4EB0C0541EA045170BD41F480111D
S214404A904FF0000E013C00F3AB8014F1360FDEBF42
S214404AA0002001F0004170BDC4F10004203C35DA1E
S214404AB00C341BDC04F11404C4F1200500FA05F3A1
S214404AC020FA04F001FA05F240EA020001F0004242
S214404AD021F0004110EBD37021FA04F642EB0601B8
S214404AE05EEA430E08BF20EAD37070BDC4F10C04E2
S214404AF0C4F1200500FA04F320FA05F001FA04F2A6
S214404B0040EA020001F0004110EBD37041F1000191
S214404B105EEA430E08BF20EAD37070BDC4F120059C
S214404B2000FA05F24EEA020E20FA04F301FA05F204
S214404B3043EA020321FA04F001F0004121FA04F2AC
S214404B4020EA020000EBD3705EEA430E08BF20EA7C
S214404B50D37070BD94F0000F0FD101F000464000B6
S214404B6041EB010111F4801F08BF013CF7D041EA38
S214404B70060195F0000F18BF704703F0004652003C
S214404B8043EB030313F4801F08BF013DF7D043EA0D
S214404B900603704794EA0C0F0CEA135518BF95EAC3
S214404BA00C0F0CD050EA410618BF52EA4306D1D14A
S214404BB081EA030101F000414FF0000070BD50EA69
S214404BC0410606BF1046194652EA430619D094EAF3
S214404BD00C0F02D150EA013613D195EA0C0F05D1DD
S214404BE052EA03361CBF104619460AD181EA030131
S214404BF001F0004141F0FE4141F470014FF00000E9
S214404C0070BD41F0FE4141F4780170BD70B54FF083
S214404C10FF0C4CF4E06C1CEA11541DBF1CEA135503
S214404C2094EA0C0F95EA0C0F00F0A7F8A4EB0504E5
S214404C3081EA030E52EA03354FEA013100F08880DC
S214404C404FEA03334FF0805545EA131343EA1263A5
S214404C504FEA022245EA111545EA10654FEA00265A
S214404C600EF000419D4208BF964244F1FD0404F513
S214404C70407402D25B084FEA3202B61A65EB03056F
S214404C805B084FEA32024FF480104FF4002CB6EB2C
S214404C90020E75EB030E22BFB61A754640EA0C00AC
S214404CA05B084FEA3202B6EB020E75EB030E22BFEC
S214404CB0B61A754640EA5C005B084FEA3202B6EB2D
S214404CC0020E75EB030E22BFB61A754640EA9C00EC
S214404CD05B084FEA3202B6EB020E75EB030E22BFBC
S214404CE0B61A754640EADC0055EA060E18D04FEA7A
S214404CF0051545EA16754FEA06164FEAC30343EA1A
S214404D0052734FEAC2025FEA1C1CC0D111F4801FE6
S214404D100BD141EA00014FF000004FF0004CB6E7DF
S214404D2011F4801F04BF01430020B4F1FD0C88BF7E
S214404D30BCF5E06F3FF6AFAEB5EB030C04BFB6EB89
S214404D40020C5FEA500C50F1000041EB045170BD7C
S214404D500EF0004E4EEA113114EB5C04C2BFD4EBA9
S214404D600C0541EA045170BD41F480114FF0000E2D
S214404D70013C90E645EA060E8DE60CEA135594EAA9
S214404D800C0F08BF95EA0C0F3FF43BAF94EA0C0FAC
S214404D900AD150EA01347FF434AF95EA0C0F7FF421
S214404DA025AF104619462CE795EA0C0F06D152EA75
S214404DB003353FF4FDAE1046194622E750EA410659
S214404DC018BF52EA43067FF4C5AE50EA41047FF46A
S214404DD00DAF52EA43057FF4EBAE12E74A0011D21C
S214404DE012F5001211D20DD56FF47873B3EB625200
S214404DF00ED44FEAC12343F0004343EA505323FA0C
S214404E0002F070474FF00000704750EA013002D180
S214404E104FF0FF3070474FF0000070474FEA4102B6
S214404E20B2F1E04324BFB3F5001CDCF1FE5C0DD9C3
S214404E3001F0004C4FEAC0024CEA5070B2F1004F0D
S214404E4040EB830008BF20F00100704711F0804F10
S214404E5021D113F13872BCBF01F00040704741F4D5
S214404E6080114FEA5252C2F11802C2F1200C10FAD9
S214404E700CF320FA02F018BF40F001004FEAC123BD
S214404E804FEAD32303FA0CFC40EA0C0023FA02F361
S214404E904FEA4303CCE77FEA625307D150EA013337
S214404EA01EBF4FF0FE4040F44000704701F0004007
S214404EB040F0FE4040F40000704700BF80F00040E5
S214404EC002E000BF81F0004142001FBF5FEA41039D
S214404ED092EA030F7FEA226C7FEA236C6AD04FEA9D
S214404EE01262D2EB1363C1BFD218414048404140E2
S214404EF0B8BF5B42192B88BF704710F0004F40F494
S214404F00000020F07F4018BF404211F0004F41F4AF
S214404F10000121F07F4118BF494292EA030F3FD07B
S214404F20A2F1010241FA03FC10EB0C00C3F120038E
S214404F3001FA03F100F0004302D5494260EB40001D
S214404F40B0F5000F13D3B0F1807F06D340084FEA88
S214404F50310102F10102FE2A51D2B1F1004F40EB7D
S214404F60C25008BF20F0010040EA030070474900E5
S214404F7040EB000010F4000FA2F10102EDD1B0FAB0
S214404F8080FCACF1080CB2EB0C0200FA0CF0AABFA5
S214404F9000EBC25052421843BCBFD0401843704743
S214404FA092F0000F81F4000106BF80F40000013249
S214404FB0013BB5E74FEA41037FEA226C18BF7FEA20
S214404FC0236C21D092EA030F04D092F0000F08BF62
S214404FD00846704790EA010F1CBF0020704712F049
S214404FE07F4F04D1400028BF40F00040704712F188
S214404FF000723CBF00F50000704700F0004343F0ED
S214405000FE4040F4000070477FEA226216BF084622
S2144050107FEA23630146420206BF5FEA412390EAE5
S214405020010F40F4800070474FF0000304E000BFDB
S21440503010F0004348BF40425FEA000C08BF70478C
S21440504043F0964301464FF000001CE050EA010250
S21440505008BF70474FF000030AE000BF50EA010265
S21440506008BF704711F0004302D5404261EB410152
S2144050705FEA010C02BF84460146002043F0B64377
S21440508008BFA3F18053A3F50003BCFA8CF2083A9C
S214405090A3EBC25310DB01FA02FC634400FA02FCA5
S2144050A0C2F12002BCF1004F20FA02F243EB0200AC
S2144050B008BF20F00100704702F1200201FA02FC0E
S2144050C0C2F1200250EA4C0021FA02F243EB020001
S2144050D008BF20EADC7070474FF0FF0C1CEAD05245
S2144050E01EBF1CEAD15392EA0C0F93EA0C0F6FD006
S2144050F01A4480EA010C400218BF5FEA41211ED0E4
S2144051004FF0006343EA501043EA5111A0FB0131CF
S2144051100CF00040B1F5000F3EBF490041EAD371A4
S2144051205B0040EA010062F17F02FD2A1DD8B3F120
S214405130004F40EBC25008BF20F00100704790F08F
S214405140000F0CF0004C08BF49024CEA502040EAE1
S21440515051207F3AC2BFD2F1FF0340EAC2507047A7
S21440516040F400004FF00003013A5DDC12F1190FE5
S214405170DCBF00F000407047C2F10002410021FA57
S21440518002F1C2F1200200FA02FC5FEA310040F16F
S214405190000053EA4C0308BF20EADC70704792F0E8
S2144051A0000F00F0004C02BF400010F4000F013A20
S2144051B0F9D040EA0C0093F0000F01F0004C02BF1B
S2144051C0490011F4000F013BF9D041EA0C018FE78A
S2144051D00CEAD15392EA0C0F18BF93EA0C0F0AD090
S2144051E030F0004C18BF31F0004CD8D180EA0100B6
S2144051F000F00040704790F0000F17BF90F0004F4F
S214405200084691F0000F91F0004F14D092EA0C0F30
S21440521001D142020FD193EA0C0F03D14B0218BFC3
S214405220084608D180EA010000F0004040F0FE4009
S21440523040F40000704740F0FE4040F440007047A5
S2144052404FF0FF0C1CEAD0521EBF1CEAD15392EA24
S2144052500C0F93EA0C0F69D0A2EB030280EA010C14
S21440526049024FEA402037D04FF0805343EA1111AD
S21440527043EA10130CF000408B4238BF5B0042F10B
S2144052807D024FF4000C8B4224BF5B1A40EA0C00B0
S214405290B3EB510F24BFA3EB510340EA5C00B3EBE2
S2144052A0910F24BFA3EB910340EA9C00B3EBD10FD0
S2144052B024BFA3EBD10340EADC001B0118BF5FEA22
S2144052C01C1CE0D1FD2A3FF650AF8B4240EBC2504B
S2144052D008BF20F0010070470CF0004C4CEA50200C
S2144052E07F32C2BFD2F1FF0340EAC250704740F45B
S2144052F000004FF00003013A37E792F0000F00F04D
S214405300004C02BF400010F4000F013AF9D040EACA
S2144053100C0093F0000F01F0004C02BF490011F45E
S214405320000F013BF9D041EA0C0195E70CEAD15356
S21440533092EA0C0F08D142027FF47DAF93EA0C0F3D
S2144053407FF470AF084676E793EA0C0F04D14B0221
S2144053503FF44CAF08466EE730F0004C18BF31F0D3
S214405360004CCAD130F000427FF45CAF31F00043CD
S2144053707FF43CAF5FE700BF4FF0FF3C06E000BF66
S2144053804FF0010C02E000BF4FF0010C4DF804CD89
S2144053904FEA40024FEA41037FEA226C18BF7FEA99
S2144053A0236C11D001B052EA530C18BF90EA010F9B
S2144053B058BFB2EB030088BFC81738BF6FEAE1702A
S2144053C018BF40F0010070477FEA226C02D15FEAC6
S2144053D0402C05D17FEA236CE4D15FEA412CE1D032
S2144053E05DF8040B704700BF844608466146FFE7F9
S2144053F00FB5FFF7C9FF002848BF10F1000F0FBDDB
S2144054004DF808EDFFF7F4FF0CBF012000205DF8D3
S21440541008FB00BF4DF808EDFFF7EAFF34BF012058
S21440542000205DF808FB00BF4DF808EDFFF7E0FFF1
S21440543094BF012000205DF808FB00BF4DF808ED42
S214405440FFF7D2FF94BF012000205DF808FB00BFA5
S2144054504DF808EDFFF7C8FF34BF012000205DF887
S21440546008FB00BF4FEA40024FEA41037FEA226C46
S21440547002D15FEA402C08D17FEA236C02D15FEA72
S214405480412C02D14FF0000070474FF001007047AA
S214405490014B1868704700BF2000002070B50F4EC3
S2144054A00F4D761BB61018BF002405D0013455F8B2
S2144054B0043B9847A642F9D10A4E0B4D761B03F0A3
S2144054C06BFAB61018BF002406D0013455F8043BDA
S2144054D09847A642F9D170BD70BD00BFA489400070
S2144054E0A4894000AC894000A48940000FB400B5B0
S2144054F0074983B004AB086853F8042B81680193CE
S21440550000F0CCFA03B05DF804EB04B0704700BF7F
S21440551020000020844641EA000313F003036DD1C7
S214405520403A41D351F8043B40F8043B51F8043B21
S21440553040F8043B51F8043B40F8043B51F8043B28
S21440554040F8043B51F8043B40F8043B51F8043B18
S21440555040F8043B51F8043B40F8043B51F8043B08
S21440556040F8043B51F8043B40F8043B51F8043BF8
S21440557040F8043B51F8043B40F8043B51F8043BE8
S21440558040F8043B51F8043B40F8043B51F8043BD8
S21440559040F8043B51F8043B40F8043B51F8043BC8
S2144055A040F8043B403ABDD2303211D351F8043B68
S2144055B040F8043B51F8043B40F8043B51F8043BA8
S2144055C040F8043B51F8043B40F8043B103AEDD217
S2144055D00C3205D351F8043B40F8043B043AF9D268
S2144055E0043208D0D2071CBF11F8013B00F8013B3B
S2144055F001D30B8803806046704700BF082A13D348
S2144056008B078DD010F003038AD0C3F10403D21A5F
S214405610DB071CBF11F8013B00F8013B80D331F893
S214405620023B20F8023B7BE7043AD9D3013A11F813
S214405630013B00F8013BF9D20B7803704B7843707E
S2144056408B7883706046704770B4860746D0541E89
S214405650002A41D0CAB2034602E014F1FF343BD3DD
S21440566003F8012B9D07F8D1032C2ED9CDB245EA7D
S21440567005250F2C45EA054519D903F110022646A3
S214405680103E0F2E42F8105C42F80C5C42F8085C64
S21440569042F8045C02F11002F2D8A4F1100222F0A3
S2144056A00F0204F00F041032032C13440DD91E468B
S2144056B02246043A032A46F8045BFAD8221F22F010
S2144056C003020432134404F003042CB1C9B21C4450
S2144056D003F8011B9C42FBD170BC7047144603463E
S2144056E0C2E700BFF0B5054689B008460C4600F054
S2144056F027F9AB6B214F04940126441C04A90222CF
S21440570003940590AC68069707960191029253B3AE
S214405710636E13F0010FB4F90C309AB201D19005C4
S21440572025D5910406D4626E43F4005322F4005209
S214405730A3816266284601AA214601F0B1FB636E4A
S21440574000280CBF0A254FF0FF35DA0702D4A3899C
S2144057509B0502D5284609B0F0BDA06D01F056FD68
S214405760284609B0F0BD284601F08EF9D0E7A06D76
S21440577001F04AFDB4F90C309AB2D2E730884000C6
S214405780024B01461868FFF7ADBF00BF200000205F
S21440579000290CBF022200224FF4806300F000B8BC
S2144057A02DE9F043614C256883B004460F46904689
S2144057B01E4615B1AB6B002B64D0B8F1020F06D075
S2144057C0B8F1010F00F29F80002EC0F29C80636EFD
S2144057D0D80734D52146284601F0FEF8216B41B162
S2144057E004F14003994202D0284601F073FA0023A0
S2144057F02363B4F90C300022A26162601A063AD4E0
S21440580023F44A6323F00303B8F1020FA3811DD0AB
S21440581001AB6A462146284601F0FAFCA3891843A4
S214405820A081002E32D1009E304601F069FD074629
S21440583000286BD0A38943F08003A38128E0A38986
S2144058409905C7D4A06D01F0DFFCC3E70025616E63
S214405850002604F1430243F002030120A660CE076F
S214405860A38122602261606101D498053ED5284616
S21440587003B0BDE8F0832169284601F02BFAB4F95D
S2144058800C30BDE7284601F0FFF896E7002FCBD056
S214405890AB6B002B33D0009BB4F90C2027609E42A4
S2144058A01CBF42F40062A281B8F1010F04BF42F06F
S2144058B00102A28192B212F00803276166610ED0FF
S2144058C0D1071AD5656E7642002315F00105A6610C
