:020000040040BA
:1000000090F80020450440004104400041044000B5
:100010004104400041044000410440000000000051
:10002000000000000000000000000000C1184000B7
:10003000410440000000000061194000C519400063
:10004000410440004104400041044000410440009C
:10005000410440004104400041044000410440008C
:10006000410440004104400041044000410440007C
:10007000410440004104400041044000410440006C
:10008000410440004104400041044000410440005C
:10009000410440004104400041044000410440004C
:1000A000410440004104400041044000410440003C
:1000B000410440004104400081114000951140007E
:1000C000410440004104400041044000410440001C
:1000D00041044000950740004104400041044000B5
:1000E00041044000410440004104400041044000FC
:1000F000410440004104400010B5054C237833B959
:10010000044B13B10448AFF300800123237010BDEA
:10011000C009002000000000E06240000C4B43B129
:100120000C480D4910B5AFF300800C48036823B9A3
:1001300010BD0A48036833B97047094B002BF7D04C
:10014000BDE810401847064B002BF5D0184700BFFC
:1001500000000000E0624000C4090020E0624000AE
:100160000000000010B50E480E4B98473E210020BD
:100170000D4B98470D4CA0470028FCD00C4B9847DE
:100180000C4A0D4B9A620D4CA0470028FCD0002071
:100190000B4B98470B4B98470B48024B984710BDA9
:1001A000000E27071906400069034000BD03400008
:1001B000CD034000043F152000040E40DD03400045
:1001C000050340000D05400080778E0610B54FF402
:1001D0000042484B5A600920474CA0470A20A047DC
:1001E0000B20A0470C20A0470D20A047434A4FF406
:1001F000C0631366C2F8903053655362C2F8803012
:10020000116F21F4C0611167516F21F4C061516712
:1002100053603B4B08211966C3F890105965596229
:10022000C3F88010186F20F008001867586F20F08E
:1002300008005867596004211966C3F89010596581
:100240005962C3F88010186F20F004001867586FC7
:1002500020F004005867596003F580634FF4801163
:100260001966C3F8901059655962C3F88010186F69
:1002700020F480101867586F20F480105867596078
:100280004FF400111966C3F8901059655962C3F80C
:100290008010186F20F400101867586F20F40010B9
:1002A000586759604FF480011966C3F8901059657A
:1002B0005962C3F88010186F20F480001867586FD7
:1002C00020F480005867596001231366C2F890300B
:1002D00053655362C2F88030116F21F0010111673C
:1002E000516F21F00101516753602420A047252060
:1002F000A04710BD50180E40ED034000000E0E4008
:1003000000100E40174A136B23F07003184310635C
:10031000936E13F0080F0AD14FF4006311498A6EEF
:1003200012F0080F03D1013BF9D1012070470D4AAB
:10033000136B23F0030343F002031363936E13F074
:10034000080F0AD14FF4006306498A6E12F0080FB5
:1003500005D1013BF9D101207047002070470020F2
:10036000704700BF00040E40C8B9114A136A090261
:1003700089B223F45C1323F0030343F45C1343F0CA
:1003800001030B431362936E13F0010FFBD0084A75
:10039000136A43F09B7343F480331362704704493C
:1003A0000B6A044A1A40044B13430B62704700BFA8
:1003B00000040E40FCFFC8FE02003701024B986E9D
:1003C00000F48030704700BF00040E404FF0005230
:1003D000014B9A62704700BF00040E40024B986EBA
:1003E00000F00200704700BF00040E402F281ED806
:1003F0001F280CD8114B9A6901238340934318D0CE
:10040000012303FA00F00D4B1861002070472038DB
:100410000A4BD3F808210123834093430BD00123D7
:1004200003FA00F0054BC3F80001002070470120DB
:100430007047002070470020704700BF00040E4046
:10044000FEE7000000B583B0254B264A9A4210D043
:10045000254B234A9A420CD2013B9B1A23F00303FB
:10046000043313441F4951F8040B42F8040B9A4219
:10047000F9D11E4B1E4A9A420AD2013B9B1A23F025
:10048000030304331344002142F8041B9342FBD1BD
:10049000184A194B23F07F039360EFF31083B3FAEC
:1004A00083F35B09019372B6BFF35F8F0022134B96
:1004B0001A700199124A136843F470031360BFF372
:1004C0004F8FBFF36F8F29B101220C4B1A70BFF30E
:1004D0005F8F62B60B4B98470B4B9847FEE700BF08
:1004E00000000020E0624000C00900208CC800200D
:1004F000C009002000ED00E00000400000000020E6
:1005000088ED00E075304000712F40003B4B1B6BC5
:1005100003F00303012B1DD083B1022B36D0374BE0
:100520001B6B03F07003702B5FD0344B1A6B344994
:10053000C2F302120B68D3400B607047314B5B690A
:1005400013F0800F14BF4FF400424FF4FA422C4BCB
:100550001A60E4E7294B1B6A13F0807F03D02A4A14
:10056000274B1A60DBE7294A254B1A60234B1B6A8D
:1005700003F07003102B05D0202BD0D1224A204B42
:100580001A60CCE7224A1E4B1A60C8E71B4B1B6A55
:1005900013F0807F16D01C4A194B1A60174B1B6B47
:1005A00003F00303022BBAD1144A916A926A1448E9
:1005B000C1F30A41036801FB0333D2B2B3FBF2F388
:1005C0000360ACE7114A0E4B1A600C4B1B6A03F038
:1005D0007003102B05D0202BE0D10B4A084B1A607A
:1005E000DCE70B4A064B1A60D8E7054A136809494D
:1005F000A1FB03135B081360704700BF00040E40AB
:100600000400002010180E40001BB70000093D0038
:1006100000127A00ABAAAAAA124B984211D9124B27
:10062000984213D9114B984214D9114B984215D9BD
:10063000104B984294BF4FF004220F4A0F4B1A60A0
:1006400070474FF080620D4B1A6070470C4A0B4B9D
:100650001A6070470B4A094B1A6070470A4A074BE9
:100660001A607047FF2C3101FF596202FF86930325
:10067000FFB3C404FFE0F50500050004000A0E40C6
:100680000001000400020004000300040A4B1B6880
:1006900053B1094B1B681A180849914208DB1046F0
:1006A000054A106018467047054A034B1A60F0E788
:1006B0004FF0FF30704700BFDC090020FCFF012035
:1006C00090F800204FF0FF3070474FF400534B601C
:1006D0000020704701207047002070472DE9F04747
:1006E000214D224F224C234EDFF89C90DFF89C8056
:1006F0001BE001212846B0472060236813F4000F57
:1007000010D0DFF88CA0514628461B4B9847DAF8EA
:1007100018201178194B1970117859701178997047
:100720001278DA703220164B98472846B847206076
:1007300000212846B0472060236813F4000FD8D06A
:10074000D9F83C3013F0006F4FF0006314BFC9F8C4
:100750003430C9F8303041462846074B9847D8F81E
:100760001820084B1A60C4E7000001402512400021
:10077000E009002029124000CD1240000C000020AA
:100780001529400000C30020000E0E4068C3002061
:1007900088C3002038B51948194B984710F4002F2A
:1007A00000D138BD174C2423236020680121164D49
:1007B000A84720680021C043A8470122134BDA70E4
:1007C0000E4C4FF47A72124B19682046114B984721
:1007D0004FF0FF312046104B984772B620460F4B22
:1007E00098472546064C2846A04710F0F85FFAD1F6
:1007F00002480B4B984762B6D3E700BF00000140A8
:100800002512400000C30020790C4000F8C20020EF
:1008100008C3002049134000211240001712400075
:100820000D12400084B0204B0F225A66D3ED1A7A85
:10083000F8EE677ACDED037ADDED037A9FED1B7A52
:1008400067EE877ADFED1A6A87EEA67A8DED037A76
:10085000DDED037A9FED177A77EEC77A9FED167A72
:1008600067EE877ADFED156A87EEA67AF3EE0B7AEC
:1008700077EE277ACDED037A9DED037ADFED107ADE
:10088000B4EEE77AF1EE10FAC4BF17EE903A039394
:10089000DDED037AFCEEE77ACDED017A9DF80430C8
:1008A000084A937004B0704700000B4000404E456A
:1008B00000F07F470000B4440000C8420000EB4352
:1008C00000007F43F8C200202DE9F04F83B03A4C7E
:1008D00020463A4B98473A4D28463A4B98474FF4B2
:1008E000A0232B600023AB7529462046364B984742
:1008F000636823F08F0363603448354B9847354F66
:10090000DFF8ECA007F1080B3D46DFF8C090DFF8F8
:10091000CC8035F8026B4A4631462046C0474A46ED
:100920003AF8021B2046C04766664FF40063E36650
:100930005D45EED1204C2046204B9847204920466B
:10094000214B9847636823F08F0363601F48204B57
:100950009847214C04F10809DFF87080164D1F4EAE
:10096000424634F8021B2846B04737F8023B6B6614
:100970004FF40063EB664C45F2D10F4C134A0F2144
:100980002046164B98470F2565664FF40063E366D3
:100990006846134B984700238DF80030694620467F
:1009A000104B98470123104A294620460F4CA04778
:1009B00003B0BDE8F08F00BF00000B40A91140005C
:1009C0004CC30020CD0F40001D10400048C3002044
:1009D000FD0F40000460400014604000890F40009B
:1009E00007104000B90F40002508400029114000C1
:1009F0000C6040002DE9F843314C4FF47A72314BD2
:100A000019682046304B98472046304B984725467A
:100A10002F4C2846A04710F0F85FFAD128482D4BFC
:100A200098472D4C04F58071234600221A601A71F4
:100A30005A719A71DA719A60DA601A615A619A6130
:100A4000DA6120338B42F1D1234D00232B604FF02C
:100A5000020885F80480214BEB604FF08D632B6119
:100A6000174F294638461E4EB04701232B6285F8A2
:100A700024806FF06043EB624FF090632B6305F1CD
:100A800020013846B0474FF0A0560325DFF84C90C0
:100A9000B846134F2566032384F864300023E366C9
:100AA00006EA0903236704F160014046B8470135AF
:100AB000203406F58026082DECD1BDE8F88300BF70
:100AC0000000014008C300204913400017124000F5
:100AD000251240000D12400068C300200000FC1FDA
:100AE0004B1240002DE9F04784B01C4B01930023CA
:100AF00002931B4B1B68039301A94FF08040194BD5
:100B00009847194F194C07F1100A00254FF08048FB
:100B1000DFF8689057F8046B2A4631464046C847CC
:100B20002581A5720B236360642323613223E36074
:100B30002660214640460E4B98472A46314640469D
:100B40000C4B984738345745E4D103214FF080408F
:100B5000094B984704B0BDE8F08700BFA0860100AC
:100B600008C30020991440004C6040002CC60020AF
:100B7000DD1440004D164000391640005F1640005D
:100B800008B5134B4FF07F421A601A61C3F8A020DA
:100B9000A3F5C0634FF000721A61C3F8A0201A6376
:100BA0004FF080621A61C3F8A0201A634FF0006210
:100BB0001A61C3F8A0201A63064B9847064B984762
:100BC000064B98470120064B9847064B186008BD16
:100BD00000140E40E50A4000F5094000C908400035
:100BE0004D2040000CC70020837853B91F4B1A6872
:100BF000012303FA01F1114000290CBF002002205B
:100C00007047012B05D0022B17D0042B1FD00020DA
:100C10007047164B1B68194224D0154B03EBC103D8
:100C200002781B799A421FD94068114B53F8313032
:100C300098428CBF0320002070470C4B1A68012398
:100C400003FA01F111420CBF184600207047094B0E
:100C50001A68012303FA01F1114000290CBF00209A
:100C600006207047012070470020704700C3002015
:100C700064C7002004C3002011B9034B58637047B8
:100C8000014B1863704700BF00140E4007EE102A96
:100C900001228A40036B1A42FCD04166D0ED1A7AD9
:100CA000F8EE677AB8EE477A77EEC77A9FED127A58
:100CB00067EE877A9FED117AC7EE876A9FED107A0B
:100CC000C6EE877AB2EE0A7A67EE877AB1EE047AD8
:100CD00067EE877AB7EE007AF4EEC77AF1EE10FA93
:100CE00008D482B0FCEEE77ACDED017A9DF80400DD
:100CF00002B070470020704700404E4500F07F472B
:100D000000005C432DE9F04F87B00446644D05EBCD
:100D1000C0050020A870634B98470590624B984728
:100D200004900395DFF8BCA1DFF8BCB14FF6FF7863
:100D30005E4FE30001931A1B5D4B03EBC20302936A
:100D400020E04B23029AD3605A4B53F824104FF003
:100D50008040594B9847524B019A134401229A7094
:100D60000020504B98470590544BDB6B13F0806F7D
:100D70004FF08062514B14BF5A631A63642104A878
:100D80004F4B98474FF0FF31DAF800004D4B984732
:100D90003BF8142042451ABF0123934043467B6130
:100DA000494B33F8142042451ABF01239340434670
:100DB0007B6102233B603BF81490444B53F8243092
:100DC00000931A4649463846414DA847344D05F828
:100DD00034003D4B33F81460009A314638463C4BA2
:100DE0009847019B1D446870C1451ABF012303FA4F
:100DF00009F34346BB6146451ABF012303FA06F6D1
:100E00004646BE6100231A461946DAF80000314D05
:100E1000A847314B1B5D029AD360214603982F4BA4
:100E20009847013805289BD801A353F820F000BF4C
:100E3000490E4000430D4000630E40007D0E40000F
:100E4000890E4000950E40001A4B53F824104FF0C5
:100E50008040234B9847124B019A134400229A700A
:100E60007EE7144B53F824104FF080401C4B9847FA
:100E70000B4B019A134402229A7071E7084B019AB6
:100E8000134403229A706BE7054B019A1344042222
:100E90009A7065E7024B019A134405229A705FE746
:100EA0002CC50020952B40001526400000000B406B
:100EB0002CC600204C60400039164000000E0E4049
:100EC00069284000792040000C6040001C60400010
:100ED0008D0C4000851E40000C000020E90B4000F6
:100EE000431640000CC700200460400070B582B07B
:100EF000026BC36A134001930024214DA84214BF22
:100F0000002501256E002E440BE0142C24D8019AF4
:100F100004F1080101238B40134213D10134172C33
:100F20002BD00F2CF1D8019A0123A3401342F5D006
:100F3000C5EBC6032344134A52F82330002BEDD0EF
:100F40009847EBE7C5EBC60323440E4A52F823301B
:100F5000002BE3D09847E1E7019A04F1090101234E
:100F60008B401342DAD0C5EBC6032344054A52F83E
:100F70002330002BD2D09847D0E702B070BD00BF1D
:100F800000400B4068C4002030B4046E01238B4045
:100F900024EA03041578002D08BF002323430366C9
:100FA000446D4B000321994024EA01045178994093
:100FB0002143416530BC70474B780A78134303677F
:100FC0008A884B8843EA02434367704700220260E5
:100FD000084B4360084B83604FF48023C360026179
:100FE00002230375012343758375C2750376437627
:100FF0008376704780778E06808D5B0000230370B8
:101000000123437070470023037020234370FF23A4
:10101000438040F6FF73838070470000036B13F03A
:10102000807F01D01920704770B401230360CB7D0D
:10103000002B14BF4FF0004500258B7D002B14BF03
:101040004FF4000400240B7D1B0603F070630A6953
:10105000CE68324313434A7D120702F040521343D5
:101060008A6856004A68B2FBF6F2013A120292B25E
:1010700013432B43234343600B7E002B14BF4FF0DD
:10108000807300230A6813434A7E002A14BF4FF07E
:1010900000720022134383608B7E1B0203F44073B3
:1010A000C0F894300E4B984205D00E4B98420CD0AD
:1010B000002070BC70470C4B03F15C01002243F828
:1010C000042F8B42FBD10020F3E7084B03F15C01B6
:1010D000002243F8042F8B42FBD10020E9E700BF38
:1010E00000000B4000400B4064C40020C0C400203E
:1010F0000C4B994207D00F290BD806D0012303FAD5
:1011000001F141627047436270474FF4004343620C
:101110007047142994BF08310931012303FA01F102
:1011200041627047FFFF00DF38B5114CA0420CBF91
:10113000172400240C440F4D45F824200AD10E4AF0
:101140004FF00044C2F880411B01DBB282F81F332C
:10115000146009E0084A4FF08044C2F880411B0146
:10116000DBB282F81E331460044B984738BD00BFD1
:1011700000400B4068C4002000E100E0F110400096
:1011800008B50248024B984708BD00BF00000B405D
:10119000ED0E400008B50248024B984708BD00BF5D
:1011A00000400B40ED0E400000B583B0134B984259
:1011B0000CBF1F201E20124B9847124B9B78FF2B11
:1011C0001AD0EFF31083B3FA83F35B09019372B67D
:1011D000BFF35F8F00220C4B1A700199094A937874
:1011E0000133937029B10122074B1A70BFF35F8F4F
:1011F00062B603B05DF804FBFEE700BF00400B40A1
:10120000ED03400040C3002000000020036823F0ED
:10121000040303607047036843F0040303607047EE
:10122000816070470069704700EB4111D1F81002EE
:1012300070470A788B791B0403F4702343F400038E
:1012400000EB4210C0F81C3270470B680A791AB3E1
:1012500030B4DBB200EB4312D2F80042CD7924F473
:10126000702444EA0544C2F800424C792CB3CC689F
:1012700044F00054C2F804420C6944F00054C2F82F
:101280000842D2F80032097923F0E06343EA0163AF
:10129000C2F8003230BC7047DBB200EB43100023D1
:1012A000C0F80032C0F80432C0F80832C0F8143276
:1012B000C0F81832C0F81C327047CC68C2F804423B
:1012C0000C6900EB4313C3F80842DAE770B58B688A
:1012D00003F0C072B2F1C07F14BF002502250A7866
:1012E00000EB4216D6F80C4224F060444C61C3F384
:1012F00003438B71D6F814428C61042B02D9D6F8C3
:101300001832CB6100EB4212D2F810328B6013F02E
:10131000807F18BF45F00405014B9847284670BDF3
:101320003312400070B588B0064600248DF80440A2
:10133000044D009469463046A8470134082CF8D182
:1013400008B070BD4B124000F8B546F2A81303FB7D
:1013500002F40B19013BB3FBF4F3802B66D84FF476
:10136000FA5404FB02F4B4EB510F61D84FF47A73D2
:1013700003FB02F208274FF0FF363B4604E001333F
:10138000DBB214441A2B0CD0B1FBF4F5802DF6D847
:1013900004FB1515B542F2D215B12E461F46EEE7F5
:1013A0001F4602FB07F2B1FBF2F1CBB2012B41D990
:1013B0000446A7F10802036823F0010303601E4DF1
:1013C0005600B71805EB4707BB78013B1B0103F03C
:1013D000700378780138000200F4E0600343F87885
:1013E000013800F0070003433A79013A120302F48E
:1013F00040521343CAB2013A120402F4FE021343EC
:10140000636120460D4B9847236843F00103236036
:1014100000230B492269013312F4001F01D18B42D2
:10142000F8D10748181A18BF0120F8BD0020F8BDF0
:101430000020F8BD0020F8BD5C604000251340008E
:10144000A0860100F0B48CB007460E4601AC114DE9
:101450000FCD0FC40FCD0FC495E8070084E8070037
:1014600001AA002352F8040BB6FBF0F0B0FBF7F032
:10147000B0F5807F07D901330B2BF3D14FF6FF7006
:101480000CB0F0BC70470A2B94BF40EA03204FF623
:10149000FF70F5E7C860400070B506460D460C6861
:1014A00044B1896820460C4B984704464FF6FF73B9
:1014B00098420CD0686840B1A968074B98474FF62E
:1014C000FF73984205D044EA00443460002420466B
:1014D00070BD0446FBE700BF4514400070B40A68C5
:1014E0004B6803F00F038C8A23430C8923438C7AC7
:1014F00043EA44238C7D43EA0443CC7D43EA4443DE
:101500000C7E43EA844300EB4214C4F80032CB68FB
:10151000C4F804320B69C4F80C328B7D3BB18C8B60
:101520004B8B43EA044300EB4214C4F81832856C39
:101530004FF001139340DB431D40CC7F04FA02F6C9
:101540008C7F944044EA06442C438464446C2340DA
:1015500091F8214004FA02F591F82040944044EAC1
:101560000544234343640123934091F82240002C17
:101570004CD0046A1C43046291F82440022C4AD0E7
:10158000D0F8C050DC432540C0F8C05091F824503A
:10159000012D07BF846E1C43856E2C40846691F834
:1015A0002540022C3DD0D0F8C0501B04DC43254020
:1015B000C0F8C05091F82550012D39D0836E1C40E1
:1015C0008466D200C46EFF23934024EA030491F89A
:1015D000233003FA02F22243C2660A6852B991F834
:1015E0002C30012B8B6A23F07F4308BF43F08073BC
:1015F000C0F8A0300B6B23F07F43496B0B432032C4
:1016000000EB42104360002070BC7047046A24EA7B
:1016100003040462B0E7D0F8C0401C43C0F8C040E7
:10162000BDE7D0F8C04044EA0343C0F8C030C8E783
:10163000846E23438366C4E7012303FA01F141600A
:101640007047012303FA01F18160704710320123D2
:1016500003FA02F203FA01F10A4302617047103201
:10166000012303FA02F203FA01F10A4342617047CF
:101670002DE9F04180B90C469046002A0FDD8F1805
:10168000084E094D306821462B6898470134BC420A
:10169000F8D14046BDE8F0814FF0FF38F9E78046C9
:1016A000F7E700BF28C5002020C500200138022828
:1016B00015D82DE9F0410E4614469AB10D46DFF8D3
:1016C00038800C4FD8F8000015F8011B3B6898478C
:1016D00000280ADBA81B013CF4D1BDE8F0814FF0E3
:1016E000FF3070471046BDE8F0814FF0FF30BDE895
:1016F000F08100BF24C5002028C5002010B4AC2311
:1017000003600B684A68B3FBF2F31B095C1E4FF6DB
:10171000FE7294420CD803628B68436040F202234D
:10172000C0F820315023036000205DF8044B70475F
:101730000120FAE7436913F0020F1ABFC1610020CC
:1017400001207047436913F0010F1DBF83690B70BF
:10175000002001207047436913F0020F1DBFC1F341
:101760000801C161002001207047436913F0010F97
:1017700005D08369C3F308030B6000207047012084
:10178000704700F1080343604FF0FF328260C3608E
:1017900003610023036070470023036170474368BF
:1017A0004B609A688A609A68516099600861036822
:1017B00001330360704730B40D68B5F1FF3F02D0CC
:1017C00000F1080202E0026904E01A4653681C684E
:1017D000A542FAD253684B6099608A6051600861F3
:1017E00003680133036030BC704703694268816855
:1017F00091608268416851605A68904204BF826873
:101800005A60002202611A68013A1A60186870472B
:1018100082B0002301930D4B1B68B3F1FF3F08D04A
:101820004FF0500383F31188BFF36F8FBFF34F8FD7
:10183000FEE74FF0500383F31188BFF36F8FBFF3C0
:101840004F8F019B002BFCD002B070470800002096
:1018500008480068006880F308884FF0000080F3B3
:10186000148862B661B6BFF34F8FBFF36F8F00DF8E
:1018700000BF000008ED00E0DFF80C00016841F453
:10188000700101607047000088ED00E04FF0807348
:1018900040F8043C21F0010140F8081C054B40F8D9
:1018A0000C3C40F8202C6FF0020340F8243C4438F4
:1018B000704700BF11184000000000000000000049
:1018C000074B19680868B0E8F04F80F30988BFF348
:1018D0006F8F4FF0000080F311887047AFF30080E6
:1018E000F4C100204FF0500383F31188BFF36F8FD2
:1018F000BFF34F8F0A4A136801331360012B0DD1D8
:10190000084B1B6813F0FF0F08D04FF0500383F310
:101910001188BFF36F8FBFF34F8FFEE7704700BF93
:101920000800002004ED00E0094B1B6843B94FF0AC
:10193000500383F31188BFF36F8FBFF34F8FFEE720
:10194000013B034A13600BB983F31188704700BF52
:10195000080000200000000000000000000000005F
:10196000EFF30980BFF36F8F154B1A681EF0100F4D
:1019700008BF20ED108A20E9F04F10602DE9090022
:101980004FF0500080F31188BFF34F8FBFF36F8F7C
:1019900000F0ECFF4FF0000080F3118809BC1968DB
:1019A0000868B0E8F04F1EF0100F08BFB0EC108AC6
:1019B00080F30988BFF36F8F704700BFAFF30080DB
:1019C000F4C1002008B54FF0500383F31188BFF332
:1019D0006F8FBFF34F8F054B984718B14FF0805270
:1019E000034B1A60002383F3118808BD21264000B1
:1019F00004ED00E0054B00221A6005490A60054924
:101A0000054A116007221A60704700BF10E000E02D
:101A100018E000E0AFAD010014E000E03C4B1A68B4
:101A20003C4B9A4208D14FF0500383F31188BFF327
:101A30006F8FBFF34F8FFEE7354B1A68364B9A42D4
:101A400008D14FF0500383F31188BFF36F8FBFF3BA
:101A50004F8FFEE710B582B0304B1A78D2B20192A8
:101A6000FF221A701B78DBB28DF803309DF803302B
:101A700003F050032A4A137007222A4B1A609DF87C
:101A8000033013F0800F12D0062300E00B469DF8C0
:101A900003205200D2B28DF803209DF80320591E76
:101AA00012F0800FF2D11F4A1360032B08D04FF0C1
:101AB000500383F31188BFF36F8FBFF34F8FFEE79F
:101AC0001B0203F4E063174A1360019BDBB2134A65
:101AD0001370154B1A6842F470021A601A6842F0CB
:101AE00070421A60114B98470024114B1C60114B37
:101AF0009847114A136843F0404313600F4B9847CF
:101B00000F4B98470F4B9847204602B010BD00BFBF
:101B100000ED00E071C20F4170C20F4100E400E02F
:101B2000E4090020E809002020ED00E0F51940005C
:101B3000080000207918400034EF00E05118400000
:101B40006D2940001118400038B5044610F0070F09
:101B50001CBF20F007040834114B9847114B1B6839
:101B600093B1114B1B681C444BF2F772944211D88D
:101B7000A3420FD20B4A15681D440B4B1C600B4B44
:101B800098474DB1284638BD094B23F00703054A55
:101B90001360E6E7054B9847064B98470025F1E7A9
:101BA00005264000EC090020F0C100205527400028
:101BB000F80900205D2F400040B14FF0500383F33F
:101BC0001188BFF36F8FBFF34F8FFEE770470000A0
:101BD00010B50446044B9847A46B044B9847B4FADD
:101BE00084F0400910BD00BFE518400029194000ED
:101BF00070B504461646856B026C52B90368002B1B
:101C00002AD14068184B9847002363600135A563CB
:101C100070BD6EB98068154B9847A368226C134459
:101C2000A3606268934219D32368A3600020EDE7A4
:101C3000C0680E4B9847236C5B42E2681A44E2602E
:101C400021688A4202D262681344E360022E07D1FF
:101C500045B1013D0020D9E70020D7E70020D5E7B6
:101C60000020D3E70020D1E7812C4000ED30400078
:101C700070B582B00190846C64B1A26BE36B9A4240
:101C800011D34FF0500383F31188BFF36F8FBFF36D
:101C90004F8FFEE74FF0500383F31188BFF36F8F30
:101CA000BFF34F8FFEE7A26B934203D80026304666
:101CB00002B070BD0A4694F845506DB201A92046A5
:101CC0000A4B98470646B5F1FF3F0AD1636A002BDD
:101CD000EDD004F12400064B9847002818BF0126D8
:101CE000E5E76B1C5BB284F84530E0E7F11B400090
:101CF000552A40002DE9F0410546234B984795F8B9
:101D0000454064B2002C19DD204EDFF88C80204F56
:101D100008E06B6A93B105F12400B84760B9013C53
:101D200064B25CB1AB6C002BF3D000212846B04705
:101D30000028F4D0C047F2E7C047F0E7FF2385F85A
:101D40004530144B9847104B984795F8444064B27F
:101D5000002C12DD2B6983B105F110070C4EDFF862
:101D6000388004E0013C64B23CB12B692BB13846A9
:101D7000B0470028F6D0C047F4E7FF2385F8443089
:101D8000044B9847BDE8F081E5184000711C400005
:101D9000552A400029194000892B400038B530B33E
:101DA00004460D461C4B98472268216CE36B03FBED
:101DB00001F3D01860600020A063A2605B1A134496
:101DC000E360FF2384F8443084F84530C5B92369C3
:101DD000EBB104F11000114B9847C0B14FF08052A5
:101DE0000F4B1A60BFF34F8FBFF36F8F0FE04FF0B1
:101DF000500383F31188BFF36F8FBFF34F8FFEE75C
:101E000004F11000074DA84704F12400A847064B31
:101E10009847012038BD00BFE5184000552A400012
:101E200004ED00E08317400029194000F8B540B9DF
:101E30004FF0500383F31188BFF36F8FBFF34F8FC1
:101E4000FEE7064617460D4601FB00F054300B4BEB
:101E50009847044678B11DB100F15403036000E0D7
:101E60002060E663256401212046054B984784F8ED
:101E700050700023A3642046F8BD00BF491B4000FA
:101E80009D1D40002DE9F04F85B0019268B10446D8
:101E9000A1B1022B1ED04FF000081D460E465F4F29
:101EA000DFF8A4A1DFF8809167E04FF0500383F3DF
:101EB0001188BFF36F8FBFF34F8FFEE7026C002ACC
:101EC000E7D04FF0500383F31188BFF36F8FBFF358
:101ED0004F8FFEE7E26B012A08D04FF0500383F3E7
:101EE0001188BFF36F8FBFF34F8FFEE74FF00008ED
:101EF000D3E72A4631462046494B9847A36C93B115
:101F000029462046474B984738B14FF08052464B00
:101F10001A60BFF34F8FBFF36F8F444B9847012078
:101F200005B0BDE8F08F636A73B104F12400404B43
:101F300098470028F1D04FF080523B4B1A60BFF316
:101F40004F8FBFF36F8FE8E70028E6D04FF0805245
:101F5000354B1A60BFF34F8FBFF36F8FDDE7334B05
:101F600098470020DCE702A8D04713E02046314B19
:101F70009847314B98474FF00108B847A26BE36B85
:101F80009A42B6D3022DB4D0019B002BE7D0B8F112
:101F9000000FE8D0254B9847284B9847B84794F84E
:101FA00044305BB2B3F1FF3F04BF002384F84430F8
:101FB00094F845305BB2B3F1FF3F04BF002384F8CF
:101FC00045301A4B984701A902A81D4B9847E8B91C
:101FD000B847D4F838B0D4F83C80144B9847C34580
:101FE000C4D1019904F11000164B98472046114BBB
:101FF0009847114B98470028BDD14FF08053C9F83E
:102000000030BFF34F8FBFF36F8FB4E72046094B0B
:102010009847094B9847002082E700BFE518400029
:10202000F11B4000711C400004ED00E02919400044
:10203000552A4000F51C4000552740000526400069
:10204000FD2A40001D2A4000E52A400038B502461E
:1020500000210120064B9847044638B10021416019
:102060000160C1600B460A46024DA847204638BDB4
:102070002D1E4000851E40002DE9F04385B00191E2
:1020800058B10446036C8BB14FF0500383F31188B1
:10209000BFF36F8FBFF34F8FFEE74FF0500383F313
:1020A0001188BFF36F8FBFF34F8FFEE70025A9465E
:1020B000514EDFF87881514F46E0013BA36323681E
:1020C00013B94F4B98476060236963B104F1100066
:1020D0004C4B984738B14FF08052484B1A60BFF3D1
:1020E0004F8FBFF36F8F484B98470125284605B0A7
:1020F000BDE8F08345B14FF0500383F31188BFF37F
:102100006F8FBFF34F8FFEE73F4B9847EEE702A874
:10211000C04723E0B04760683C4B984705463A4BC0
:10212000984742E020463A4B98473A4B984709E097
:102130002046374B9847374B98472046364B9847B1
:10214000002846D14FF00109B047A36B002BB4D152
:10215000019B002BCED0B9F1000FD8D02A4B984765
:102160002E4B9847B04794F844305BB2B3F1FF3F31
:1021700004BF002384F8443094F845305BB2B3F1D7
:10218000FF3F04BF002384F845301F4B984701A947
:1021900002A8234B98470028CAD120461E4B9847D7
:1021A0000028BFD02368002BB4D0019904F124008B
:1021B0001C4B98472046164B9847164B98470028CB
:1021C000C0D14FF080533B60BFF34F8FBFF36F8F91
:1021D000B8E7002D8AD0084B9847636A53B1236B48
:1021E0001968C1F1050160680F4B9847064B984785
:1021F00000257BE70021F6E7E518400004ED00E04C
:10220000052E4000552A400029194000C12B4000EE
:10221000F51C400055274000D11B4000052640001A
:10222000FD2A40001D2A40003D2D4000E52A4000C7
:10223000084B1B681B683BB1064B1B68DB68DB68FF
:102240005A68054B1A6070474FF0FF32024B1A6014
:10225000704700BFF8C10020A8C2002070B5044636
:102260000E461D4B1D681D4B186804301C4B9847CB
:1022700048B91A4B1A681B490B68D06A0122824080
:1022800023EA02030B60B4F1FF3F13D02C44134B3D
:102290001B685C60A54216D8134B18680F4B196871
:1022A0000431124B9847124B1B689C423CBF104BA9
:1022B0001C6070BD002EE9D0084B196804310D4830
:1022C0000D4B984770BD0D4B1868044B19680431CD
:1022D000064B984770BD00BFF0C20020F4C100203B
:1022E000EB17400078C20020F8C10020B71740006B
:1022F000A8C20020C8C200209F174000FCC10020D7
:1023000080B5184DDFF87880DFF8789001E0164B43
:1023100098472B68C3B1154F154EC047FB68DC6862
:10232000201DB047134A1368013B13602B68013B23
:102330002B60114B9847206BDFF84CA0D04720460C
:10234000D0472B68002BE8D10C4B1B68012BDED942
:102350004FF08053C9F80030BFF34F8FBFF36F8F3A
:10236000D5E700BF68C20020412F4000DCC200203A
:10237000EB17400064C200202919400000C2002071
:10238000E518400004ED00E0B91B40002DE9F04FD6
:1023900083B083460D460193DDF834A096003046A5
:1023A000604B9847002800F08D8007465C205D4B0D
:1023B00098470446002800F0828007633246A52132
:1023C0003846594B9847043E236B1E4426F00706B7
:1023D0002B7884F834302B7863B12B4604F1340227
:1023E00005F10F01587802F8010F13F8010F08B139
:1023F0008B42F7D1002784F843700C9D042D28BF31
:102400000425E562E564276504F104084046DFF829
:102410006C91C84704F11800C8472461C5F105054F
:10242000A5616462676584F85870019A5946304620
:102430003E4B98472060BAF1000F01D0CAF8004027
:102440003B4B98473B4A1368013313603A4B1B6878
:10245000002B3AD0394B1B683BB9374B1B68DA6A03
:10246000E36A9A429CBF344B1C60354A13680133BF
:1024700013606364E06A334A1168012383400B43AD
:10248000136000EB800041462F4B03EB80002F4B85
:1024900098472F4B9847294B1B68002B3BD0264B66
:1024A0001B68DA6AE36A9A4239D24FF08052294BAC
:1024B0001A60BFF34F8FBFF36F8F01202CE03846B7
:1024C000254B98474FF0FF3026E01B4B1C601368EC
:1024D000012BCAD11C4E3046204DA84706F11400EE
:1024E000A84706F12800A84706F13C00A84706F1D6
:1024F0005000A8471A4F3846A8471A4E3046A847FA
:102500001948A8471948A8471948A847194B1F60F8
:10251000194B1E60A9E7012003B0BDE8F08F012030
:10252000FAE700BF491B4000213240008D184000EF
:10253000E518400064C20020F4C10020C4C200209D
:1025400074C2002078C2002000C200209F17400003
:102550002919400004ED00E0B91B4000831740003A
:102560007CC2002090C20020B0C20020DCC200204B
:10257000C8C20020F8C10020FCC10020991740000B
:1025800010B582B0174B0193002300934FF4807273
:1025900015491648164CA047012804D0B0F1FF3F5A
:1025A00016D002B010BD4FF0500383F31188BFF373
:1025B0006F8FBFF34F8F4FF0FF320E4B1A60012227
:1025C0000D4B1A6000220D4B1A600D4B9847E8E73F
:1025D0004FF0500383F31188BFF36F8FBFF34F8F1A
:1025E000FEE700BFA4C20020F460400001234000C9
:1025F0008D234000A8C20020C4C20020F0C20020E9
:102600001D1A4000024A136801331360704700BF6F
:1026100070C20020014B1868704700BFF0C2002054
:102620002DE9F0473D4B1B68002B69D13C4B1D68E1
:1026300001351D60C5B93B4B1B681B6843B14FF0AA
:10264000500383F31188BFF36F8FBFF34F8FFEE703
:10265000344A1168344B186810601960334A1368A3
:1026600001331360324B9847324B1B689D420CD2AA
:102670000024314B1B68DB6A03EB83039B002F4A6A
:10268000D358022B28BF01243FE00024DFF89490A8
:10269000DFF8BC802A4F1FE04FF0FF32254B1A6055
:1026A000E7E7244A1360E4E706F11800C047F06A40
:1026B0003A680123834013433B6000EB800051469E
:1026C0001E4B03EB80001F4B98471B4B1B68F26AA5
:1026D000DB6A9A4228BF0124D9F800301B68002B1E
:1026E000DAD0D9F80030DB68DE6873689D42D8D351
:1026F00006F1040A5046C047B36A002BD4D1D6E78E
:10270000114A1368013313600024104B1B68002B1F
:102710000CBF20460120BDE8F08700BF70C200203A
:10272000F0C20020F8C10020FCC10020ACC2002093
:1027300031224000A8C20020F4C1002000C20020C5
:1027400078C200209F1740006CC20020F4C2002015
:10275000EB174000354B1B6843B94FF0500383F330
:102760001188BFF36F8FBFF34F8FFEE72DE9F04164
:102770002F4B98472D4B1A68013A1A601B68002BA3
:1027800050D12C4B1B682BB900242B4B984720466B
:10279000BDE8F0810024294F294E2A4D3B6803B340
:1027A000FB68DC6804F11800B04704F104084046F7
:1027B000B047E06A2A680123834013432B6000EB93
:1027C00080004146204B03EB8000204B9847204B74
:1027D0001B68E26ADB6A9A42E0D301221D4B1A6051
:1027E000DCE70CB11C4B98471C4B1C686CB11C4FB0
:1027F000184E012501E0013C04D0B8470028FAD06A
:102800003560F8E70022154B1A60124B1B685BB16C
:102810004FF08052134B1A60BFF34F8FBFF36F8F8F
:102820000124B2E70024B0E70024AEE770C2002024
:10283000E518400064C2002029194000B0C2002001
:10284000EB17400078C2002000C200209F17400014
:10285000F4C10020F4C20020312240006CC20020EC
:102860002126400004ED00E038B550B1054689B995
:102870004FF0500383F31188BFF36F8FBFF34F8F77
:10288000FEE74FF0500383F31188BFF36F8FBFF360
:102890004F8FFEE7194B1B6843B14FF0500383F392
:1028A0001188BFF36F8FBFF34F8FFEE70C46144BB9
:1028B0009847144B18682A681444904214D2A242D4
:1028C00016D92C60A04203D20021201A0E4B984743
:1028D0000E4B984780B94FF080520D4B1A60BFF3F2
:1028E0004F8FBFF36F8F38BDA24203D8A04201D3F0
:1028F0002C60EDE72C60E7E738BD00BF70C2002018
:1029000005264000F0C200205D224000552740000F
:1029100004ED00E010B5A8B104460F4B1B6843B1AD
:102920004FF0500383F31188BFF36F8FBFF34F8FC6
:10293000FEE70A4B984700212046094B9847094B70
:10294000984738B94FF08052074B1A60BFF34F8F4A
:10295000BFF36F8F10BD00BF70C20020052640007E
:102960005D2240005527400004ED00E0254B1B6828
:1029700033BB10B50022244B1A60244B1A681B6825
:1029800012681B6B9A4205D8204B186819683431BD
:102990001F4B98471F4B1B68B3FA83F3DBB2C3F19D
:1029A0001F0303EB830292001B498A5862B94FF060
:1029B000500383F31188BFF36F8FBFF34F8FFEE790
:1029C0000122114B1A607047134A9900C81802EB94
:1029D00080004468646844601944024608329442A6
:1029E00009D003EB83030C4A02EB83035B68DA68CC
:1029F000064B1A6010BD6068074A02EB8102506006
:102A0000EFE700BF70C20020F4C20020F4C1002034
:102A1000292F400078C2002000C2002040B94FF0AA
:102A2000500383F31188BFF36F8FBFF34F8FFEE71F
:102A300010B50C46044B19681831044B9847012116
:102A40002046034B984710BDF4C10020B717400043
:102A50005D22400038B5C368DC682CB304F118056A
:102A60002846184B9847184B1B6833BB251D284632
:102A7000144B9847E06A154A1168012383400B43C1
:102A8000136000EB80002946114B03EB8000114BD3
:102A90009847114B1B68E26ADB6A9A4283BF0120A8
:102AA0000E4B1860002038BD4FF0500383F311889F
:102AB000BFF36F8FBFF34F8FFEE729460848054BE2
:102AC0009847E6E7EB17400070C2002078C200206C
:102AD00000C200209F174000F4C10020F4C2002073
:102AE000B0C20020034B1B680360034B1B684360AC
:102AF000704700BFACC20020F0C20020E8B170B542
:102B0000054619B30C461B4B98471B4B1A6869685E
:102B10002368B3F1FF3F29D0184800682E68864229
:102B200001D08A4224D2521A9A4218D30023236039
:102B30000124134B9847204670BD4FF0500383F398
:102B40001188BFF36F8FBFF34F8FFEE74FF0500335
:102B500083F31188BFF36F8FBFF34F8FFEE79B1A8C
:102B600023602846074B98470024E2E70024E0E76B
:102B70000124DEE7E5184000F0C20020ACC20020CE
:102B800029194000E52A40000122014B1A607047D4
:102B9000F4C20020034660B1196B0B78A52B0BD152
:102BA0004B1C581A13F8012BA52AFAD0C0F38F003A
:102BB0007047024B1B68EFE70020F7E7F4C10020E5
:102BC000002850D038B50446C26A28490968C96A45
:102BD0008A423FD28169002905DB24490968C96A14
:102BE000C1F10501816102EB8202214901EB820200
:102BF0006169914205D01D4A1268D26AE2620120E1
:102C000038BD251D28461B4B984770B9E26A02EB78
:102C100082039B001649CB583BB917480368012132
:102C200001FA02F223EA02020260104B1B68D86A22
:102C3000E062114A1168012404FA00F30B431360A7
:102C400000EB800029460A4B03EB80000B4B9847B2
:102C5000204638BD054A1268C06CD36A98422CBF22
:102C60000020012038BD0020704700BFF4C10020C3
:102C700000C20020EB17400078C200209F174000E0
:102C800000284AD038B50446274A1268904208D036
:102C90004FF0500383F31188BFF36F8FBFF34F8F53
:102CA000FEE7026D42B94FF0500383F31188BFF382
:102CB0006F8FBFF34F8FFEE7013A0265C06AE16C88
:102CC00088422CD0002A2CD1251D2846174B984726
:102CD00068B9E16A01EB81039B00154AD35833B907
:102CE0001448036801228A4023EA02030360E06C6F
:102CF000E062C0F10503A3610E4A1168012404FAE1
:102D000000F30B43136000EB80002946084B03EBF4
:102D10008000094B9847204638BD002070470020AE
:102D200038BD002038BD00BFF4C10020EB174000C3
:102D300000C2002078C200209F174000002855D014
:102D400038B50446006D40B94FF0500383F3118845
:102D5000BFF36F8FBFF34F8FFEE7E26C8A4238BF3D
:102D60000A46E16A914201D0012800D038BD2048CE
:102D70000068844208D14FF0500383F31188BFF3F9
:102D80006F8FBFF34F8FFEE7E262A0690028A4BFF8
:102D9000C2F10502A26101EB8101164A02EB810139
:102DA00062698A42E2D1251D2846134B984768B9CB
:102DB000E16A01EB81039B000E4AD35833B90F48F7
:102DC000036801228A4023EA02030360E06A0B4A97
:102DD0001168012383400B43136000EB80002946F8
:102DE000044B03EB8000064B9847BFE7704700BFDA
:102DF000F4C1002000C20020EB17400078C2002080
:102E00009F174000054B1B6823B1044B1A68136DD4
:102E100001331365014B1868704700BFF4C10020EF
:102E2000F0B583B005460C4600230193184B984239
:102E30000AD0184B98420FD0174B984214D0174B1A
:102E40009D421BD003B0F0BD1F46154E21463846AB
:102E5000B0470028FAD1F2E71E46114D2146304610
:102E6000A8470028FAD1EDE71E460E4D01A93046CD
:102E7000A8470028FAD1019B2370E3E71E46094DBD
:102E800001A93046A8470028FAD1019B2370D9E751
:102E900000060E400006064000000A4000400A40BE
:102EA000451740006B17400070B50C46184B984210
:102EB0000AD0184B984210D0174B984216D0174B97
:102EC00098421CD0002070BD1E46154D214630464C
:102ED000A8470028FAD1012070BD1E46104D21469A
:102EE0003046A8470028FAD1012070BD1E460D4D7E
:102EF00021463046A8470028FAD1012070BD1E4661
:102F0000084D21463046A8470028FAD1012070BD5F
:102F100000060E400006064000000A4000400A403D
:102F2000351740005717400008B50A4601460248C9
:102F3000024B9847FEE700BF34614000C5304000B7
:102F4000054BDB6B13F0007F4FF00072024B14BF98
:102F50005A631A63704700BF000E0E404FF05003D3
:102F600083F31188BFF36F8FBFF34F8FFEE700002D
:102F700030B587B0284B9847284D294B1D60294B09
:102F80009847294C294B1C60294A2A4B1A602A4A27
:102F90002A4B1A6003954FF4E13304934FF4006316
:102FA00005930720264B984703A92046254B9847B1
:102FB000254D2B6800219868244CA0472B680021E0
:102FC0005868A0472B6800219868A047204B984775
:102FD00000230193012200924FF480621D491E4894
:102FE0001E4CA047012802D01D481E4B98470023C5
:102FF0000193012200924FF480621B491B48174C39
:10300000A047012802D01648164B9847184B9847FE
:10301000002007B030BD00BF6501400080778E06FC
:1030200008C30020CD01400000060E4028C5002046
:10303000A92E400024C50020212E400020C50020DC
:10304000ED034000FD16400010000020BD3240009E
:10305000810B4000FC604000050D40008D234000C6
:1030600008614000C530400028614000DD06400096
:103070008125400070B50F4E0F4D761BB61018BF5E
:10308000002405D0013455F8043B9847A642F9D1F5
:103090000A4E0B4D761B03F00DF9B61018BF002435
:1030A00006D0013455F8043B9847A642F9D170BDCB
:1030B00070BD00BFC0624000C0624000C8624000F6
:1030C000C06240000FB400B5074983B004AB086884
:1030D00053F8042B8168019300F080FA03B05DF887
:1030E00004EB04B0704700BF10000020844641EAA2
:1030F000000313F003036DD1403A41D351F8043B70
:1031000040F8043B51F8043B40F8043B51F8043BC1
:1031100040F8043B51F8043B40F8043B51F8043BB1
:1031200040F8043B51F8043B40F8043B51F8043BA1
:1031300040F8043B51F8043B40F8043B51F8043B91
:1031400040F8043B51F8043B40F8043B51F8043B81
:1031500040F8043B51F8043B40F8043B51F8043B71
:1031600040F8043B51F8043B40F8043B51F8043B61
:1031700040F8043B51F8043B40F8043B403ABDD2D0
:10318000303211D351F8043B40F8043B51F8043B72
:1031900040F8043B51F8043B40F8043B51F8043B31
:1031A00040F8043B103AEDD20C3205D351F8043B01
:1031B00040F8043B043AF9D2043208D0D2071CBFCD
:1031C00011F8013B00F8013B01D30B8803806046F6
:1031D000704700BF082A13D38B078DD010F003036C
:1031E0008AD0C3F10403D21ADB071CBF11F8013BDC
:1031F00000F8013B80D331F8023B20F8023B7BE72B
:10320000043AD9D3013A11F8013B00F8013BF9D255
:103210000B7803704B7843708B78837060467047EF
:1032200070B4860746D0541E002A41D0CAB2034665
:1032300002E014F1FF343BD303F8012B9D07F8D1D2
:10324000032C2ED9CDB245EA05250F2C45EA0545BC
:1032500019D903F110022646103E0F2E42F8105CD9
:1032600042F80C5C42F8085C42F8045C02F110027F
:10327000F2D8A4F1100222F00F0204F00F04103271
:10328000032C13440DD91E462246043A032A46F85D
:10329000045BFAD8221F22F003020432134404F024
:1032A00003042CB1C9B21C4403F8011B9C42FBD19E
:1032B00070BC704714460346C2E700BF00290CBF2C
:1032C000022200224FF4806300F000B82DE9F043A1
:1032D000614C256883B004460F4690461E4615B1E2
:1032E000AB6B002B64D0B8F1020F06D0B8F1010F20
:1032F00000F29F80002EC0F29C80636ED80734D508
:103300002146284601F008F9216B41B104F1400340
:10331000994202D0284601F07DFA00232363B4F9D4
:103320000C300022A26162601A063AD423F44A6388
:1033300023F00303B8F1020FA3811DD001AB6A464D
:103340002146284601F004FDA3891843A081002EE0
:1033500032D1009E304601F073FD074600286BD045
:10336000A38943F08003A38128E0A3899905C7D4EA
:10337000A06D01F0E9FCC3E70025616E002604F1B1
:10338000430243F002030120A660CE07A38122601E
:103390002261606101D498053ED5284603B0BDE89E
:1033A000F0832169284601F035FAB4F90C30BDE705
:1033B000284601F009F996E7002FCBD0AB6B002B24
:1033C00033D0009BB4F90C2027609E421CBF42F40E
:1033D0000062A281B8F1010F04BF42F00102A28194
:1033E00092B212F00803276166610ED0D1071AD598
:1033F000656E7642002315F00105A661A36009D031
:103400000025284603B0BDE8F083A360656E15F083
:103410000105F5D19305C0D4A06D01F097FC2846B5
:1034200003B0BDE8F083A660F0E7284601F0CCF8D1
:10343000C7E74FF0FF35B0E7DDF80090B14504D0A5
:10344000484601F0FDFC074620B9B4F90C304FF0B6
:10345000FF3592E74E4683E7100000200000000091
:10346000000000000000000000000000000000005C
:10347000000000000000000000000000000000004C
:1034800090F800F06DE9024520F007016FF0000CA4
:1034900010F0070491F820F040F049804FF000044C
:1034A0006FF00700D1E9002391F840F000F1080027
:1034B00082FA4CF2A4FA8CF283FA4CF3A2FA8CF35F
:1034C0004BBBD1E9022382FA4CF200F10800A4FAC6
:1034D0008CF283FA4CF3A2FA8CF3E3B9D1E904231A
:1034E00082FA4CF200F10800A4FA8CF283FA4CF351
:1034F000A2FA8CF37BB9D1E9062301F1200182FA0B
:103500004CF200F10800A4FA8CF283FA4CF3A2FA10
:103510008CF3002BC6D0002A04BF04301A4612BA1E
:10352000B2FA82F2FDE8024500EBD2007047D1E921
:10353000002304F00305C4F100004FEAC50514F0B0
:10354000040F91F840F00CFA05F562EA05021CBF81
:1035500063EA050362464FF00004A9E72DE9F84F3E
:103560004B6E9C0493462FD59368126853B30E4656
:10357000074602F1080919E920045FEA9A0817D002
:10358000043D002401E0A04510D0324655F8041F48
:10359000384601F0BBF8431C04F10104F3D10023C9
:1035A000CBF80830CBF80430BDE8F88FDBF80830F2
:1035B0002AF0030AA3EB0A03CBF8083009F1080943
:1035C000002BD8D10020EAE701F00AFA0023CBF85B
:1035D0000830CBF80430BDE8F88F00BF2DE9F04F7C
:1035E000ADB01D468B4690460793069018B1836B8D
:1035F000002B00F0F380DBF86430BBF90C00DF0730
:1036000081B202D48E0540F1FC808C040AD4DBF830
:10361000643040F4005123F40053ABF80C10CBF8A5
:10362000643089B2080740F1B380DBF81030002B1A
:1036300000F0AE8001F01A030A2B00F0B5800023E1
:103640000DF170090B93119310930393CDF83C90F7
:10365000CA46CDF810B098F800304446FBB1252B8F
:1036600002D11CE0252B03D014F8013F002BF9D127
:10367000A4EB08059DB1109B119ACAF80080013394
:103680002A44072BCAF80450119210937ADD002ABD
:1036900040F0B084039B10922B44CA4603932378D6
:1036A000002B00F0E08300204FF000038DF837304E
:1036B00004F1010862780546064603464FF0FF34E0
:1036C00008F10108A2F12001582900F2DE82DFE8AA
:1036D00011F02102DC02DC022902DC02DC02DC0245
:1036E000DC02DC02DC0289029502DC02A200BD02DF
:1036F000DC029F01A401A401A401A401A401A4016E
:10370000A401A401A401DC02DC02DC02DC02DC0274
:10371000DC02DC02DC02DC02DC02B201DC02DC02E4
:10372000DC02DC02DC02DC02DC02DC02DC02DC02A9
:103730009701DC02DC02DC02DC02DC029B01DC0221
:10374000DC025302DC02DC02DC02DC02DC02DC0212
:10375000DC02DC02DC02DC025A021B02DC02DC02BC
:10376000DC026E021B02DC02DC027302DC02F501E9
:1037700082010902D702DC029A02DC02A700DC0205
:10378000DC022E020AF1080A039B2B44039386E70E
:103790005946069800F0ACFD18BBBBF80C1001F0C0
:1037A0001A030A2B7FF44BAFBBF90E30002BFFF648
:1037B00046AFDBF86430DB0705D48F0503D4DBF8B4
:1037C000580001F0C3FA2B4642465946069800F0CD
:1037D0004DFD039003982DB0BDE8F08F00F0F4FE8E
:1037E00009E7DBF86430D90704D4BBF80C309A053C
:1037F00040F1AA844FF0FF33039303982DB0BDE846
:10380000F08FDBF8580001F09FFABBF90C0081B291
:10381000FBE67642079243F0040398F800204FE756
:1038200008969E0600F150840799DD060A4600F1CD
:10383000EF83580640F1EC830E8804310027012203
:1038400007914FF000018DF837100025611C00F042
:10385000168123F08001029156EA070140F014819D
:10386000002C40F05C83002A40F0B78313F0010382
:10387000059300F057840DF1B00B30230BF8413D58
:10388000059BA342B8BF234601930DB101330193B9
:10389000029B13F00203099302D0019B02330193B0
:1038A000029B13F084030A9340F01782089B019A4D
:1038B0009D1A002D40F31182102D40F39084109B2F
:1038C000119AC44ED6461027A2461946069C07E018
:1038D00001F1020C0EF1080E0146103D102D11DD14
:1038E000481C1032072811928EE8C0001090EFDDBE
:1038F000002A40F0E481103D102D11464FF0010CDC
:10390000CE46EDDC54466146F2462A440729119220
:10391000CAF80060CAF80450109100F3EC829DF8D8
:1039200037500AF1080A481C002D40F0DE81099B3F
:10393000002B00F0F88102320EA902230728119211
:1039400010908AE80A0040F3EA81002A40F08C8354
:103950000A9B802B4FF001001146CA4640F0E781D8
:10396000089B019D5E1B002E40F3E181102E9A4DB5
:1039700040F35084D4461027A246069C07E001F18C
:10398000020E0CF1080C0146103E102E11DD481CF1
:103990001032072811928CE8A0001090EFDD002A69
:1039A00040F09D82103E102E4FF0010E1146CC4685
:1039B000EDDC5446E2463244BEF1070F11928AE82C
:1039C0006000CDF840E000F369830AF1080A0EF1C7
:1039D00001007146ABE1089613F0200240F08C83A1
:1039E00013F0100140F01A8313F0400200F0168328
:1039F00007980A460146043106880791002720E708
:103A0000089643F01003E7E7089643F0100308E731
:103A100043F0800398F8002052E6A2F1300100261E
:103A200018F8012B06EB860601EB4606A2F13001E1
:103A30000929F5D946E60896002840F0088443F0A5
:103A400010039E0600F14C83DD0600F1F382580658
:103A500040F1F082079DB5F900602A46F71704325D
:103A6000304639460792002871F10002C0F25D83AA
:103A7000611C9DF837504FF001027FF4EAAE56EA20
:103A8000070100F04D820293012A00F08C82022A85
:103A900040F05C820B98CB46330906F00F0143EAF5
:103AA00007733A091E461746435C0BF8013D56EA78
:103AB0000703F1D1A9EB0B030593E1E6002840F0E1
:103AC000C083990600F16783DA0600F1F1805B0696
:103AD00040F1EE80079A136804320792BDF80C207B
:103AE0001A80B8E507983D4A08960B920668782236
:103AF000302104308DF8392043F00203079000276D
:103B00008DF8381002229CE60896002899D08DF88E
:103B1000375096E798F80020002D7FF4D1AD0120B2
:103B20002025CDE543F0010398F80020C8E508966C
:103B3000002840F0938329490B919F0600F1E88209
:103B40000798DE06014600F170825D0640F16D8245
:103B50000431068807910027D80740F1228256EAEF
:103B6000070100F01E8230218DF8392043F0020356
:103B70008DF83810022264E60896002840F06B8326
:103B800017490B91D9E7079908960A688DF84820DC
:103B90004FF000000A468DF83700043201200190F2
:103BA000079205900DF1480B0293002470E643F054
:103BB000400398F8002083E598F800206C2A03BFA2
:103BC00098F8012043F0200308F1010843F01003A6
:103BD00076E500BF80614000906140006461400074
:103BE0005061400007990E680A46002E02F1040257
:103BF000FFF60FAE079298F8002061E598F80020D4
:103C000001202B255CE507990896D1F800B04FF00C
:103C100000028DF837200E1DBBF1000F00F0E58289
:103C2000671C00F0C482224600215846019301F02F
:103C3000D7FB019B002800F0E582A0EB0B02059268
:103C4000079602939DF83750002419E698F8002053
:103C50002A2A08F1010700F0E982A2F130010929BE
:103C6000B8464FF000043FF62DAD18F8012B04EBD9
:103C7000840401EB4404A2F130010929F5D921E5BE
:103C800043F0200398F800201AE50896002840F039
:103C9000DB82002A00F0E78001218DF848204FF0F8
:103CA000000201918DF8372005910DF1480B7BE75B
:103CB000079A136804320792039A1A60CBE40FAA9A
:103CC00004992046FFF74AFC002840F039811099FA
:103CD000119A01F1010CCE46FFE51099119A481C8A
:103CE0009DF83750002D3FF422AE01320DF137051B
:103CF0000121072811921090CAF80050CAF8041048
:103D000040F30881002A40F0BC81099B002B3FF45E
:103D10001FAE0EAB022208461C931D92CA460146F6
:103D20000AF1080A01300A9B802B3FF419AE059B6B
:103D3000E41A002C2EDD102CB34D1EDDD6461026C5
:103D4000069FDDF810A006E0881C0EF1080E19464B
:103D5000103C102C10DD4B1C1032072B11928EE8FA
:103D600060001093F0DD002A65D1103C102C4FF05C
:103D700001001146CE46EEDCF2462244072811929D
:103D8000CAF80050CAF80440109000F385800AF188
:103D9000080A01300599CAF800B00A4407281192B0
:103DA000CAF80410109040F38280002A40F0188175
:103DB000029B1092580735D5089B01995C1A002C7C
:103DC00040F3E780CA46102C40F3188210998F4EBA
:103DD000069FDDF810B0102506E0881C0AF1080ADD
:103DE0001946103C102C11DD4B1C1032072B119280
:103DF000CAF80060CAF804501093EEDD42BB103CD4
:103E0000102C4FF001001146CA46EDDC2244072871
:103E10001192CAF80060CAF80440109051DD002ADF
:103E200040F09B81039B089A01998A42ACBF9B1882
:103E30005B1803934EE00FAA51463846FFF78EFBFE
:103E4000002840F03F811099119A481CCE467FE728
:103E50000FAA59463846FFF781FB60B91099119AAD
:103E6000481CCA46BDE7119BDDF810B0002B40F09E
:103E7000D48100231093DBF8643013F0010FBBF8FA
:103E80000C3002D19A0540F1DE805B063FF5B2AC02
:103E900003982DB0BDE8F08F002A40F00681059A06
:103EA0001D9201231192CDF870B01093CA460AF109
:103EB000080A029B590704D5089B01995C1A002C3B
:103EC00081DC039B089901988142ACBF5B181B18E9
:103ED000039372BB00231093CA46FFF7BCBB0FAA23
:103EE00004992046FFF73AFB50BB1099119A01F153
:103EF000010ECC4648E5002A40F040819DF837107D
:103F0000002900F01B8101220DF1370110461D929E
:103F10001C91CA4601460AF1080A013007E5029BD6
:103F2000012A00F09880022A0DD102930026002772
:103F3000B0E50FAA04990698FFF710FB0028C9D036
:103F4000DDF810B097E7029300260027494600E00D
:103F50005946F20842EA4772F80806F00703074696
:103F60001646303356EA070201F8013C01F1FF3BE7
:103F7000EED1029AD6077FF59DAD302B3FF49AAD76
:103F8000023930230BF8013CA9EB010305938B4662
:103F900076E4039B089A8A42ACBF9B185B18039394
:103FA00098E702224DE4002F08BF0A2E52D3CB46D9
:103FB000304639460A22002301F09CFE30320BF8CD
:103FC000012D3046394600230A2201F093FE0646B1
:103FD0000F4656EA0703EBD16CE50594CB464FE458
:103FE0000FAA04990698FFF7B9FA0028A8D1119AE8
:103FF000CA465EE70FAA04990698FFF7AFFA0028B1
:104000009ED1CA46FFF7C0BB90614000806140006E
:104010000431166807910122002712E4079801462F
:1040200004310668079100270BE40E6804310791FC
:10403000002791E507990E680A46F71704320792A0
:10404000304639460FE5DBF8580000F07FFEBBF83C
:104050000C301AE7029B02930DF1B00B30360123AE
:104060000BF8416D05930BE40FAA04990698FFF72E
:1040700075FA00287FF464AF1099119A481CCA465B
:1040800051E60FAA04990698FFF768FA00287FF412
:1040900057AF1099119A481CCA4648E4002A40F0CC
:1040A000918001201146CA4641E60FAA049906985C
:1040B000FFF754FA00287FF443AF1098119A0130AB
:1040C000CA4667E6D346D6E6079E073626F00702BD
:1040D00002F10801D2E9006707910122FFF7B1BBA5
:1040E000079E073626F00706D6E9000106F108020A
:1040F000079206460F46B6E4079E073626F00702EB
:1041000002F10801D2E9006707910022FFF799BB8D
:10411000079E073626F0070101F108000790D1E954
:10412000006719E5CB46FFF7ABBB2D25764267EB61
:1041300047078DF837500122FFF788BB099BB3B9B9
:1041400011460120CA46F2E5DBF8580000F0FEFDFA
:104150004FF0FF330393FFF750BB0FAA0499069863
:10416000FFF7FCF900287FF4EBAE119AA9E60EAB3D
:1041700002221C931D920120CA46D0E50FAA049981
:104180000698FFF7EBF900287FF4DAAE1099119A40
:10419000481CCA46A4E5079A03991368CD17084638
:1041A000043229460792C3E90001FFF754BA584682
:1041B00007960293FFF764F9002405909DF83750A5
:1041C000FFF75EBB0FAA04990698FFF7C7F900280E
:1041D0007FF4B6AE1099119A481CCA46A7E510990B
:1041E000119A204E0131FFF790BB062C28BF062400
:1041F000059407960194DFF870B0D5E41098194E35
:10420000013003E605949DF8375007960293044663
:10421000FFF736BB8646FFF7CEBB06980FAA594676
:10422000FFF79CF900283FF424AE24E6079998F89C
:1042300001200C68043144EAE474B8460791FFF7A2
:104240003FBA8DF837503CE48DF8375021E58DF8B2
:104250003750FFF7F4BB8DF8375091E48DF83750A5
:1042600069E400BF80614000786140002DE9F041C1
:104270000C46ADF58D6D8989666EE589199621F03C
:1042800002010646E069ADF80C1017464FF4806154
:10429000626AADF80E5098461AAD0023079016A832
:1042A00009920693009504950291059100F048FD4E
:1042B00043463A4669463046FFF790F9051E07DB4C
:1042C0003046694600F028F9002818BF4FF0FF3546
:1042D000BDF80C305B0603D5A38943F04003A381EE
:1042E000169800F02FFD28460DF58D6DBDE8F08184
:1042F00038B5304B1B6805460C4613B19A6B002A43
:1043000038D0B4F90C2093B218070CD52069A8B1A5
:1043100013F001021ED0636900225B42A361A26018
:10432000F0B1002038BDD9063CD5580726D4206905
:1043300042F00803A3819BB20028E9D103F4207264
:10434000B2F5007FE4D02846214600F02FFDA38976
:104350002069DDE7990758BF6269A2600028E0D1B3
:10436000B4F90C301A06DDD543F04003A3814FF0B9
:10437000FF3038BD184600F027F9C2E7216B51B174
:1043800004F14003994204D0284600F043FAB4F9FE
:104390000C200023236300232069636022F02402A1
:1043A0002060C5E742F0400209232B604FF0FF3048
:1043B000A28138BD10000020024B13B1024800F06A
:1043C00005B8704700000000394640000023014650
:1043D0001A46184601F066BBB1F90C309AB22DE9C5
:1043E000F0410D46110780463AD46A6843F40063F1
:1043F000002AAB816FDDAC6A002C49D000229BB251
:10440000D8F80060C8F8002013F4805267D02A6DF5
:104410005F0705D569682B6B521A0BB1EB6BD21A8B
:104420000023E9694046A047441C3CD0B5F90C3054
:104430002A692A6023F400630022AB81DB046A60EE
:1044400047D4296BC8F8006011B305F140039942C5
:1044500002D0404600F0DEF900202863BDE8F0817C
:104460002E69AEB12C682E6091070CBF6B690023DA
:10447000A41BAB600AE0234632466F6AE9694046F6
:10448000B8470028A4EB0004064404DD002CF2DC4D
:104490000020BDE8F081AB8943F04003AB814FF0D1
:1044A000FF30BDE8F081D8F800401D2CF3D8194B3F
:1044B000E340DB4313F00103EDD1B5F90C206B6051
:1044C00022F400632969AB81DA042960B9D5002C94
:1044D000B7D12865B5E7EA6B002A8CDCD8E7012361
:1044E000E9694046A047431C024602D0AB89AC6A4A
:1044F0008EE7D8F80030002BF8D01D2B01D0162BFA
:1045000002D1C8F80060C3E7AB8943F04003AB8138
:10451000BDE8F0810100402038B50D46044608B1E1
:10452000836BBBB1B5F90C0088B16B6EDB0701D4AE
:10453000810517D520462946FFF74EFF6B6EDA0737
:10454000044602D4AB899B0507D5204638BD0446F6
:10455000204638BD00F038F8E4E7A86D00F0F6FB1F
:10456000204638BDA86D00F0EFFBE3E7014900F0FD
:10457000AFBB00BF8D5B400010B5002304468181B6
:10458000C28103604360836043660361436183616A
:10459000194608225C30FEF743FE07480749084ADF
:1045A000084B2062E4616162A262E36204F1580098
:1045B000BDE8104000F0C4BBD1584000F5584000A1
:1045C000315940005159400010B50446124800F0DE
:1045D000BBFBA26BD2B904F53B731048C4F8E832B8
:1045E0000321C4F8E022E063C4F8E4126068042107
:1045F000FFF7C2FF01220921A068FFF7BDFF0222D9
:104600001221E068FFF7B8FF0123A3630248BDE869
:10461000104000F09BBB00BF70C800206D454000FB
:10462000014800F091BB00BF84C80020014800F0A1
:104630008DBB00BF84C8002038B50A4C0A4D641BEE
:10464000A4100AD004F18043013B05EB8305013C33
:1046500055F804399847002CF9D1BDE8384001F0ED
:1046600033BE00BFD8624000D46240002DE9F0475D
:1046700082B080468946144600F054FB012836D0AB
:104680004A4604F15C0301A9404601F0BDF9421C11
:10469000064625D0A8B39DF804E000250DF1040AD4
:1046A00009E023685A1C226083F800E00135B54216
:1046B00027D215F80AE0A368013B002BA360F0DACB
:1046C000A769BB4271462246404602DBBEF10A0F93
:1046D000E7D101F041F9431CE8D102B0BDE8F08711
:1046E000A38943F04003A38102B0BDE8F08709F13C
:1046F000FF33FE2BC4D85FFA89FE06468DF804E02E
:10470000CBE7484602B0BDE8F08700BF30B5536E36
:1047100013F0010FB2F90C30144683B005469AB27B
:1047200001D190051CD5900406D4626E43F4005369
:1047300042F40052A381626628462246FFF796FFA4
:10474000636EDA07054602D4A3899B0502D5284685
:1047500003B030BDA06D00F0F9FA284603B030BDBB
:10476000A06D019100F0F0FAB4F90C3001999AB201
:10477000D9E700BFF8B5244F0C46064600F0E4FE2A
:10478000BB685D68C4F57E610F3125F003052944DF
:1047900021F47F6121F00F01A1F58054B4F5805F11
:1047A00007DB0021304601F081F8BB682B449842BA
:1047B00004D0304600F0CEFE0020F8BD6142304605
:1047C00001F074F801300DD0104BBA6819682D1B38
:1047D00045F001053046091B5560196000F0BAFE2E
:1047E0000120F8BD0021304601F060F8BA68831A54
:1047F0000F2BDEDD064C0549246843F00103001B46
:1048000053600860D5E700BFB00500200CC300204E
:10481000B8090020002944D02DE9F0410D4680461A
:1048200000F092FE55F8047C694927F00103A5F1D8
:104830000804E2188E685068B24220F003005ED08F
:10484000FE0750600BD455F8087CE41B01F1080EFC
:10485000A56875453B446DD0E768EF60BD601518ED
:104860006D68ED073ED543F001026260E350B3F599
:10487000007F17D2DB08581C9A104D6851F8307031
:10488000A7600123934001EBC0022B43083AE2608A
:104890004B6041F83040FC604046BDE8F04100F01C
:1048A00059BE70475A0A042A52D89A0902F13907A8
:1048B000FF0002F13805C819CA59083890424FD094
:1048C000516821F003018B4232D292689042F7D1B5
:1048D000C368A060E3609C60C4604046BDE8F041EE
:1048E00000F038BE95683B4FBD42034440D0D068CD
:1048F000E86043F0010285606260E350B7E7FF07BC
:10490000034407D455F8082CA41A1344A068E2689D
:10491000C2609060304A126843F0010093426060C8
:104920008C60B9D32D4B40461968FFF723FFB3E7DE
:104930001046CDE711184968C90744D49168D26878
:10494000CA60034443F0010091606060E350A3E754
:10495000142A16D802F15C07FF0002F15B05AAE7F2
:10496000AA1001234D6893402B434B600346B0E7E8
:1049700043F001024C610C61E560A5606260E350A8
:104980008AE7542A06D81A0B02F16F07FF0002F1DA
:104990006E0590E7B2F5AA7F06D8DA0B02F1780728
:1049A000FF0002F1770586E740F25450824206D8B4
:1049B0009A0C02F17D07FF0002F17C057BE74FF4C2
:1049C0007E777E2577E743F001016160136063E73E
:1049D000B0050020B8050020BC0900203CC3002021
:1049E0009368002B73D02DE9F04F8B8983B00C4670
:1049F00019070090164626D5226922B313F002004B
:104A000035682CD04FF00009B04FC846B246B845C3
:104A100043464A4628BF3B460098B8F1000F50D0A5
:104A2000E169666AB047002858DDDAF808301B1AD9
:104A30008144A8EB0008CAF80830002BE7D1002019
:104A400003B0BDE8F08F21460098FFF751FC002825
:104A500040F03381A389356813F00200D2D113F0FE
:104A6000010945D14F46019637B39A05D4F808801D
:104A700040F183804745C346C0F0AB8013F4906F8C
:104A800040F0AC802068BA465A46494600F0F8FC2F
:104A9000A2682368A2EB08025B44A2602360019A2B
:104AA0009368A3EB0A03D144A7EB0A079360002B9A
:104AB000C5D0A389002FD8D1D5F800906F680835EC
:104AC000D2E7D5F80090D5F8048008359FE700209C
:104AD000704721460098FFF71FFD70B3B4F90C3002
:104AE00043F040034FF0FF30A38103B0BDE8F08FE7
:104AF000814633464E46A8469A464D464EB380B34D
:104B0000206823696269B145CB4628BFB346984205
:104B10005F4604D9A36813449B4500F3A6809345E0
:104B20004BDB1346676AE16900982A46B847071EBF
:104B3000D4DDB9EB0709CCD00120DAF80830DB1B53
:104B40003D44F61BCAF80830002B3FF478AF002E26
:104B5000D5D108F1080313E9600098460833002E08
:104B6000F9D032460A21284600F03AFC002800F02D
:104B7000A1800130A0EB0509C2E7206823699842B3
:104B800002D863699F425DD2B84528BFB846424605
:104B9000494600F075FCA3682268A3EB0803424471
:104BA000A36022600BB1C24679E721460098FFF767
:104BB000B3FC002892D1C24671E75A46294600F05C
:104BC0005FFCA2682368A2EB0B025B44A260236037
:104BD000AFE72068B846BA46BB4655E76269206829
:104BE000216902EB4208A0EB010A08EBD8780AF130
:104BF00001004FEA680838444045424684BF804679
:104C000042465B0544D51146009800F021F98346E1
:104C1000002855D052462169FEF768FAA38923F48B
:104C2000906343F08003A3810BEB0A00A8EB0A0317
:104C3000C4F810B0C4F814802060A360B846BA4627
:104C4000BB4621E76FF00041B94228BF39464A46CA
:104C500091FBF3F10098666A03FB01F3E169B04749
:104C6000B0F1000A3FF71BAF38E71A462946019317
:104C700000F006FC2268019B00981A44226021463D
:104C8000FFF74AFC019B00287FF428AF1F4650E73E
:104C9000009800F065FC83460028C5D1009D21697D
:104CA0002846FFF7B7FDB4F90C300C2223F080033F
:104CB0002A6015E706F1010922E74FF0FF30BFE651
:104CC000009A0C231360B4F90C3009E700FCFF7F55
:104CD0002DE9F84310F538771FD0884606464FF087
:104CE00000097D68BC68013D11D4A389012B05F141
:104CF000FF3508D9B4F90E3001332146304602D0D1
:104D0000C04749EA00096B1C04F16804EDD13F6813
:104D1000002FE6D14846BDE8F883B9464846BDE8CD
:104D2000F88300BF044B054A1B685B6B002B08BF70
:104D3000134693F828017047100000204404002017
:104D4000704700BF704700BF704700BF704700BF8B
:104D500070B50C46B1F90E10002990B015461E46EC
:104D600014DB01AA00F074FF00280FDB029A02F4A2
:104D70007042A2F50052B2FA82F252094FF48063F7
:104D80004FF4006032602B6010B070BDA289002328
:104D900012F08000336004D0402218462A6010B020
:104DA00070BD4FF480632B6010B070BD8A8992078C
:104DB0000B4606D501F1430201211A601A615961BF
:104DC0007047F0B583B001AB6A460C460646FFF764
:104DD000BFFF00990546304600F03AF8B4F90C30B0
:104DE000D8B1019A154F0099F76343F08003A3816E
:104DF0002060206161611AB92B43A38103B0F0BD2B
:104E00003046B4F90E1000F037FFA0B1A38923F0AB
:104E1000030343F001031BB2EEE79A05EED423F03F
:104E2000030304F1430243F002030121A381226042
:104E300022616161E2E7B4F90C30DDE76D454000C5
:104E4000024B0146186800F003B800BF10000020B4
:104E50002DE9F04F01F10B06162E83B0054640F206
:104E60009E8036F0070600F1BD80B14200F2BA80A4
:104E700000F06AFBB6F5FC7FC0F09382730A00F085
:104E8000B880042B00F27981B30903F1390003F1F2
:104E9000380EC300BF4F3B44A3F108015C68A14238
:104EA00006D10CE0002A80F2AA80E468A14206D074
:104EB000636823F003039A1B0F2AF3DD70463C69F5
:104EC000DFF8E4E2744500F0AB81636823F003038C
:104ED0009A1B0F2A00F39081002AC7F814E0C7F844
:104EE00010E080F29D80B3F5007F80F06181DB08E7
:104EF00003F1010C99107A6857F83C80C4F80880D7
:104F000001238B4007EBCC0113430839E1607B6040
:104F100047F83C40C8F80C408210012494409C4261
:104F200000F28B801C4206D120F0030064001C427A
:104F300000F10400FAD007EBC009CC468046DCF84B
:104F40000C309C4507D16DE1002A80F27B81DB6843
:104F50009C4500F06781596821F003018A1B0F2AE4
:104F6000F2DDD3F80CC0D3F8088000939C192846D2
:104F700046F0010642F001055E60C8F80CC0CCF8AE
:104F800008807C613C61C4F80CE0C4F808E065600E
:104F90005A5000F0DFFA009B03F108041EE01029CC
:104FA00020D800F0D1FA102618230220794F3B4474
:104FB000A3F108025C68944200F03D816368E168F7
:104FC000A66823F00303234428465A68F16042F0A0
:104FD00001028E605A6000F0BDFA0834204603B02A
:104FE000BDE8F08F00240C2320462B6003B0BDE801
:104FF000F08F40204FF400734FF03F0E4AE72344F8
:10500000E1685A68A66842F00102F16028468E60A5
:105010005A6000F09FFA0834204603B0BDE8F08FD4
:10502000234428465A6842F001025A6000F092FA7E
:105030000834204603B0BDE8F08FBC68636823F0F5
:105040000308B04504D3A8EB06030F2B00F38580BB
:10505000DFF85891504BD9F800201B6801323344D7
:1050600004EB080A00F0558103F580530F3323F455
:105070007F6B2BF00F0B5946284600F017FC411CA4
:10508000024600F0FC80824500F2F780434B19682D
:105090005944196000F04D81D9F8000001301BBF60
:1050A000A2EB0A0A5144C9F80020196012F0070166
:1050B00000F01581C1F10800C1F5805102440831AA
:1050C00002EB0B09C9F30B09A1EB09094946284674
:1050D0000193009200F0EAFB431C9DE80C0000F0F5
:1050E0004381801A484440F001001968BA6049447D
:1050F000BC425060196017D0B8F10F0F40F2FB802E
:105100006068A8F10C0222F0070204EB020E00F026
:1051100001004FF0050C10430F2A6060CEF804C068
:10512000CEF808C000F217811D4BBC681A68914286
:1051300088BF19601B4B1A689142626888BF19606A
:1051400022F003029642A2EB060301D80F2B04DCE7
:10515000284600F0FFF9002440E7A21943F00103BC
:1051600046F0010666602846BA60536000F0F2F926
:105170000834204603B0BDE8F08F142B71D9542BAE
:1051800000F2A380330B03F16F0003F16E0EC30036
:1051900080E600BFB00500203CC300200CC3002007
:1051A00034C3002038C30020B8050020B80900200F
:1051B0005A0A042A5BD9142A00F2AE8002F15C017B
:1051C000C9005B3207EB010C7958ACF1080C8C4537
:1051D00000F088804A6822F00302934273D2896803
:1051E0008C45F7D1DCF80C207B68E260C4F808C07D
:1051F0009460CCF80C408FE6A11946F0010C42F007
:105200000106C4F804C0284679613961C1F80CE090
:10521000C1F808E04E60E25000F09CF90834DDE689
:105220007B6879E608F1010818F0030F0CF1080C0F
:105230007FF485AE2DE0DC68A34208BF02303FF466
:105240003EAEBBE619441C464A68DB6854F8086F5A
:1052500042F001024A602846F3609E6000F07AF94D
:10526000BCE603F15C0003F15B0EC30012E69A0991
:1052700002F13901C9003832A4E7BC4254D0BC68FD
:10528000626822F003025DE759F80839994540F059
:10529000868010F0030F00F1FF30F5D17B6823EA20
:1052A00004037B6064009C423FF6C7AE002C3FF4D1
:1052B000C4AE1C4240467FF43EAE64001C4200F186
:1052C0000400FAD037E68C468CE7B3F5AA7F15D8F0
:1052D000F30B03F1780003F1770EC300DAE54FF426
:1052E0008051EDE67B689210012101FA02F213432E
:1052F0007B60624679E70123536029E740F254520C
:10530000934222D8B30C03F17D0003F17C0EC3005D
:10531000C0E503F1100BAEE6542A29D81A0B02F1AE
:105320006F01C9006E324DE7204B1968594419606E
:10533000B2E6CAF30B0000287FF4AEAE08EB0B0315
:10534000BA6843F001035360EEE67F204FF47E73AA
:105350004FF07E0E9EE504F1080128460093FFF70A
:1053600059FA009B1968DFE601204FF00009BCE6FE
:10537000B2F5AA7F05D8DA0B02F17801C9007732BD
:1053800020E740F254518A4205D89A0C02F17D017F
:10539000C9007C3216E74FF47E717E2212E77B68EB
:1053A00080E7F00806F1080300E600BF0CC3002008
:1053B00082B049B15AB16BB113780B601278101CEE
:1053C00018BF012002B0704701A9002AF3D110468E
:1053D00002B070476FF00100F4E700BF000000006A
:1053E00001F0FF01102A2BDB10F0070F08D010F896
:1053F000013B013A8B422DD010F0070F42B3F6D19A
:10540000F0B441EA012141EA014122F007047FF0B2
:1054100000070023F0E80256083C85EA010586EA09
:10542000010685FA47F5A3FA87F586FA47F6A5FA45
:1054300087F68EB9EED1F0BC01F0FF0102F0070251
:1054400032B110F8013B013A83EA010313B1F8D1FC
:105450000020704701387047002D06BF35460338DD
:10546000073815F0010F07D1013015F4807F02BF16
:10547000013015F4C03F0130F0BC0138704700BF67
:105480008842F0B50DD98B1898420AD28418002AA8
:1054900051D0224613F8014D02F8014D9942F9D13D
:1054A000F0BD0F2A48D941EA00039B0746D100F11D
:1054B000100401F11003154653F8106C44F8106CF9
:1054C00053F80C6C44F80C6C53F8086C44F8086CF6
:1054D000103D53F8046C44F8046C0F2D03F11003D5
:1054E00004F11004E8D8A2F1100323F00F0302F036
:1054F0000F0E1033BEF1030F1944034421D91E1FB0
:105500000D467446043C55F8047B46F8047F032C92
:10551000F8D8AEF1040424F00304043421442344F5
:1055200002F0030262B1013B0A4411F8014B03F897
:10553000014F8A42F9D1F0BD0346F3E70346F2E793
:10554000F0BD7246EEE700BF0148FFF7FDBB00BFAC
:1055500074C800200148FFF7F9BB00BF74C80020E1
:10556000002900F095802DE9F04F0D46164683B0D6
:10557000804606F10B07FFF7E7FF55F804EC162FFE
:105580002EF00304A5F108093CD810221746BE42AC
:105590003DD8944243DAC44B996809EB0400884231
:1055A00000F0B480436823F0010101444968C90751
:1055B0004CD51EF0010F00F09B8031464046FFF7AE
:1055C00047FC064600283AD055F8043C23F0010376
:1055D0004B44A0F108029A4200F02181221F242AA4
:1055E00000F20781132A00F2DB8003462A46116885
:1055F00019605168596092689A6029464046FFF7E1
:1056000009F91CE027F00707002F3A46BFDA002609
:105610000C233046C8F8003003B0BDE8F08F2E46AA
:10562000E31B0F2B1ED8D9F8043003F001032343EA
:105630004C44C9F80430636843F00103636040469A
:10564000FFF788FF304603B0BDE8F08F23F0030377
:10565000E11891421FDBC36882682E46D3600C4676
:105660009A60DDE7D9F8042009EB070102F0010296
:105670004C4443F001031743C9F804704B6063685E
:1056800043F00103083163604046FFF7C3F8D6E7F3
:105690001146FFF7DDBB1EF0010F8ED155F8081C37
:1056A000A9EB010ADAF8041021F003010B442344AA
:1056B000934225DBC26881685646CA609160DAF879
:1056C0000C1056F8080F221F242AC160886000F2CF
:1056D0009480132A6FD92968CAF808106968CAF833
:1056E0000C101B2A00F2A28008350AF1100263E0B8
:1056F00055F8083CA9EB030ADAF8041021F003017D
:1057000063189342FFF659AF5646D8E7416821F037
:10571000030BA34407F11000834556DA1EF0010F76
:105720007FF44BAF55F8081CA9EB010ADAF8041016
:1057300021F003018B445845E2DC5646DAF80C10A0
:1057400056F8080F221F242AC160886000F28F805B
:10575000132A40F28A802968CAF808106968CAF8D2
:105760000C101B2A00F28A8008350AF11002296801
:10577000116069685160A96891600AEB0701ABEBA1
:10578000070242F0010299604A60DAF8043003F03F
:1057900001031F434046CAF80470FFF7DBFE51E7E0
:1057A0002B6803606B6843601B2A2DD800F1080347
:1057B00005F108021BE732462968116069685160EB
:1057C000A96891601C46D1462AE709EB0701ABEBBB
:1057D000070B4BF0010299604A6055F8043C03F056
:1057E00001031F43404645F8047CFFF7B3FE2E46F5
:1057F00028E72946FFF744FEFFE6294630461C46C7
:10580000D146FFF73DFE0BE7AB688360EB68C360F2
:10581000242A17D000F1100305F11002E7E650F832
:10582000043C23F003031C442E46F9E6A968CAF899
:105830001010E968CAF81410242A0CD010350AF1A7
:105840001802B9E72B6903616B69436105F118021E
:1058500000F11803CBE62A69CAF818206A69CAF869
:105860001C2018350AF12002A6E732467FE72946B8
:1058700030460193FFF704FE019B7EE7A968CAF852
:105880001010E968CAF81410242A03D010350AF160
:1058900018026CE72A69CAF818206A69CAF81C203D
:1058A00018350AF1200262E7B005002038B5074C30
:1058B0000023054608462360FAF7E8FE431C00D0A3
:1058C00038BD2368002BFBD02B6038BD88C8002072
:1058D00010B50C46B1F90E1000F0F6F9002803DB04
:1058E000236D0344236510BDA38923F48053A38152
:1058F00010BD00BF2DE9F0411646B1F90C201F463E
:10590000D3050C46054607D500220223B1F90E1037
:1059100000F0C4F9B4F90C20B4F90E1022F480524E
:10592000A2813B4632462846BDE8F04100F0A4B8CB
:1059300010B50C46B1F90E1000F0B0F9A389421C65
:105940000EBF23F4805343F480532065A38110BD20
:10595000B1F90E1000F008B9F8B50D461446064628
:1059600010B1836B002B4BD0B4F90C20A369A3605A
:1059700091B2080739D52369002B36D0EDB28904DE
:105980002F4615D522686169D31A8B421CDA013380
:10599000A168501C0139A1602060157062699A42AB
:1059A0001AD0A389DB0701D50A2D15D03846F8BDDA
:1059B000616E42F4005221F40051A28122686166B6
:1059C0006169D31A8B42E2DB21463046FEF7A4FD23
:1059D00040B922680123DBE721463046FEF79CFDF3
:1059E0000028E3D04FF0FF37E0E721463046FEF7CE
:1059F0007FFC0028F6D1B4F90C20236991B2BDE7F1
:105A0000FEF7E2FDB0E700BFF0B5064685B01F46E1
:105A100089B1104C104D2468646B002C08BF2C46D3
:105A2000D4F8E040A047431C03D100228A233A6007
:105A3000336005B0F0BD0C460649074A0968496B5A
:105A4000002908BF11462246D1F8E04001A9A0472D
:105A5000E9E700BF100000204404002021B1FF2A24
:105A600004D80A7001207047084670478A230360F3
:105A70004FF0FF30704700BF70B50D46084C11461F
:105A800006461A46284600232360FBF70FFE431CF8
:105A900000D070BD2368002BFBD0336070BD00BF09
:105AA00088C800202DE9F8432C4D06462868984602
:105AB0000F469146FFF748F9294B1C68D4F8483146
:105AC000002B3ED05A681F2A1CDC02F1010E76B171
:105AD00003EB82010124C1F88890D3F88801944037
